{"abi":[{"inputs":[{"internalType":"uint256","name":"minimum","type":"uint256"},{"internalType":"address","name":"creator","type":"address"}],"stateMutability":"nonpayable","type":"constructor"},{"inputs":[{"internalType":"uint256","name":"index","type":"uint256"}],"name":"approveRequest","outputs":[],"stateMutability":"nonpayable","type":"function"},{"inputs":[{"internalType":"address","name":"","type":"address"}],"name":"approvers","outputs":[{"internalType":"bool","name":"","type":"bool"}],"stateMutability":"view","type":"function"},{"inputs":[],"name":"approversCount","outputs":[{"internalType":"uint256","name":"","type":"uint256"}],"stateMutability":"view","type":"function"},{"inputs":[],"name":"contribute","outputs":[],"stateMutability":"payable","type":"function"},{"inputs":[{"internalType":"string","name":"description","type":"string"},{"internalType":"uint256","name":"value","type":"uint256"},{"internalType":"address payable","name":"recipient","type":"address"}],"name":"createRequest","outputs":[],"stateMutability":"nonpayable","type":"function"},{"inputs":[{"internalType":"uint256","name":"index","type":"uint256"}],"name":"finalizeRequest","outputs":[],"stateMutability":"nonpayable","type":"function"},{"inputs":[],"name":"getRequestsCount","outputs":[{"internalType":"uint256","name":"","type":"uint256"}],"stateMutability":"view","type":"function"},{"inputs":[],"name":"manager","outputs":[{"internalType":"address","name":"","type":"address"}],"stateMutability":"view","type":"function"},{"inputs":[],"name":"minimumContribution","outputs":[{"internalType":"uint256","name":"","type":"uint256"}],"stateMutability":"view","type":"function"},{"inputs":[{"internalType":"uint256","name":"","type":"uint256"}],"name":"requests","outputs":[{"internalType":"string","name":"description","type":"string"},{"internalType":"uint256","name":"value","type":"uint256"},{"internalType":"address payable","name":"recipient","type":"address"},{"internalType":"bool","name":"complete","type":"bool"},{"internalType":"uint256","name":"approvalCount","type":"uint256"}],"stateMutability":"view","type":"function"}],"devdoc":{"kind":"dev","methods":{},"version":1},"evm":{"assembly":"    /* \"Campaign.sol\":447:2890  contract Campaign {... */\n  mstore(0x40, 0x80)\n    /* \"Campaign.sol\":927:1049  constructor(uint256 minimum, address creator) {... */\n  callvalue\n  dup1\n  iszero\n  tag_1\n  jumpi\n  0x00\n  dup1\n  revert\ntag_1:\n  pop\n  mload(0x40)\n  sub(codesize, bytecodeSize)\n  dup1\n  bytecodeSize\n  dup4\n  codecopy\n  dup2\n  dup2\n  add\n  0x40\n  mstore\n  dup2\n  add\n  swap1\n  tag_2\n  swap2\n  swap1\n  tag_3\n  jump\t// in\ntag_2:\n    /* \"Campaign.sol\":994:1001  creator */\n  dup1\n    /* \"Campaign.sol\":984:991  manager */\n  0x00\n  dup1\n    /* \"Campaign.sol\":984:1001  manager = creator */\n  0x0100\n  exp\n  dup2\n  sload\n  dup2\n  0xffffffffffffffffffffffffffffffffffffffff\n  mul\n  not\n  and\n  swap1\n  dup4\n  0xffffffffffffffffffffffffffffffffffffffff\n  and\n  mul\n  or\n  swap1\n  sstore\n  pop\n    /* \"Campaign.sol\":1034:1041  minimum */\n  dup2\n    /* \"Campaign.sol\":1012:1031  minimumContribution */\n  0x01\n    /* \"Campaign.sol\":1012:1041  minimumContribution = minimum */\n  dup2\n  swap1\n  sstore\n  pop\n    /* \"Campaign.sol\":927:1049  constructor(uint256 minimum, address creator) {... */\n  pop\n  pop\n    /* \"Campaign.sol\":447:2890  contract Campaign {... */\n  jump(tag_6)\n    /* \"#utility.yul\":88:205   */\ntag_8:\n    /* \"#utility.yul\":197:198   */\n  0x00\n    /* \"#utility.yul\":194:195   */\n  dup1\n    /* \"#utility.yul\":187:199   */\n  revert\n    /* \"#utility.yul\":334:411   */\ntag_10:\n    /* \"#utility.yul\":371:378   */\n  0x00\n    /* \"#utility.yul\":400:405   */\n  dup2\n    /* \"#utility.yul\":389:405   */\n  swap1\n  pop\n    /* \"#utility.yul\":334:411   */\n  swap2\n  swap1\n  pop\n  jump\t// out\n    /* \"#utility.yul\":417:539   */\ntag_11:\n    /* \"#utility.yul\":490:514   */\n  tag_23\n    /* \"#utility.yul\":508:513   */\n  dup2\n    /* \"#utility.yul\":490:514   */\n  tag_10\n  jump\t// in\ntag_23:\n    /* \"#utility.yul\":483:488   */\n  dup2\n    /* \"#utility.yul\":480:515   */\n  eq\n    /* \"#utility.yul\":470:533   */\n  tag_24\n  jumpi\n    /* \"#utility.yul\":529:530   */\n  0x00\n    /* \"#utility.yul\":526:527   */\n  dup1\n    /* \"#utility.yul\":519:531   */\n  revert\n    /* \"#utility.yul\":470:533   */\ntag_24:\n    /* \"#utility.yul\":417:539   */\n  pop\n  jump\t// out\n    /* \"#utility.yul\":545:688   */\ntag_12:\n    /* \"#utility.yul\":602:607   */\n  0x00\n    /* \"#utility.yul\":633:639   */\n  dup2\n    /* \"#utility.yul\":627:640   */\n  mload\n    /* \"#utility.yul\":618:640   */\n  swap1\n  pop\n    /* \"#utility.yul\":649:682   */\n  tag_26\n    /* \"#utility.yul\":676:681   */\n  dup2\n    /* \"#utility.yul\":649:682   */\n  tag_11\n  jump\t// in\ntag_26:\n    /* \"#utility.yul\":545:688   */\n  swap3\n  swap2\n  pop\n  pop\n  jump\t// out\n    /* \"#utility.yul\":694:820   */\ntag_13:\n    /* \"#utility.yul\":731:738   */\n  0x00\n    /* \"#utility.yul\":771:813   */\n  0xffffffffffffffffffffffffffffffffffffffff\n    /* \"#utility.yul\":764:769   */\n  dup3\n    /* \"#utility.yul\":760:814   */\n  and\n    /* \"#utility.yul\":749:814   */\n  swap1\n  pop\n    /* \"#utility.yul\":694:820   */\n  swap2\n  swap1\n  pop\n  jump\t// out\n    /* \"#utility.yul\":826:922   */\ntag_14:\n    /* \"#utility.yul\":863:870   */\n  0x00\n    /* \"#utility.yul\":892:916   */\n  tag_29\n    /* \"#utility.yul\":910:915   */\n  dup3\n    /* \"#utility.yul\":892:916   */\n  tag_13\n  jump\t// in\ntag_29:\n    /* \"#utility.yul\":881:916   */\n  swap1\n  pop\n    /* \"#utility.yul\":826:922   */\n  swap2\n  swap1\n  pop\n  jump\t// out\n    /* \"#utility.yul\":928:1050   */\ntag_15:\n    /* \"#utility.yul\":1001:1025   */\n  tag_31\n    /* \"#utility.yul\":1019:1024   */\n  dup2\n    /* \"#utility.yul\":1001:1025   */\n  tag_14\n  jump\t// in\ntag_31:\n    /* \"#utility.yul\":994:999   */\n  dup2\n    /* \"#utility.yul\":991:1026   */\n  eq\n    /* \"#utility.yul\":981:1044   */\n  tag_32\n  jumpi\n    /* \"#utility.yul\":1040:1041   */\n  0x00\n    /* \"#utility.yul\":1037:1038   */\n  dup1\n    /* \"#utility.yul\":1030:1042   */\n  revert\n    /* \"#utility.yul\":981:1044   */\ntag_32:\n    /* \"#utility.yul\":928:1050   */\n  pop\n  jump\t// out\n    /* \"#utility.yul\":1056:1199   */\ntag_16:\n    /* \"#utility.yul\":1113:1118   */\n  0x00\n    /* \"#utility.yul\":1144:1150   */\n  dup2\n    /* \"#utility.yul\":1138:1151   */\n  mload\n    /* \"#utility.yul\":1129:1151   */\n  swap1\n  pop\n    /* \"#utility.yul\":1160:1193   */\n  tag_34\n    /* \"#utility.yul\":1187:1192   */\n  dup2\n    /* \"#utility.yul\":1160:1193   */\n  tag_15\n  jump\t// in\ntag_34:\n    /* \"#utility.yul\":1056:1199   */\n  swap3\n  swap2\n  pop\n  pop\n  jump\t// out\n    /* \"#utility.yul\":1205:1712   */\ntag_3:\n    /* \"#utility.yul\":1284:1290   */\n  0x00\n    /* \"#utility.yul\":1292:1298   */\n  dup1\n    /* \"#utility.yul\":1341:1343   */\n  0x40\n    /* \"#utility.yul\":1329:1338   */\n  dup4\n    /* \"#utility.yul\":1320:1327   */\n  dup6\n    /* \"#utility.yul\":1316:1339   */\n  sub\n    /* \"#utility.yul\":1312:1344   */\n  slt\n    /* \"#utility.yul\":1309:1428   */\n  iszero\n  tag_36\n  jumpi\n    /* \"#utility.yul\":1347:1426   */\n  tag_37\n  tag_8\n  jump\t// in\ntag_37:\n    /* \"#utility.yul\":1309:1428   */\ntag_36:\n    /* \"#utility.yul\":1467:1468   */\n  0x00\n    /* \"#utility.yul\":1492:1556   */\n  tag_38\n    /* \"#utility.yul\":1548:1555   */\n  dup6\n    /* \"#utility.yul\":1539:1545   */\n  dup3\n    /* \"#utility.yul\":1528:1537   */\n  dup7\n    /* \"#utility.yul\":1524:1546   */\n  add\n    /* \"#utility.yul\":1492:1556   */\n  tag_12\n  jump\t// in\ntag_38:\n    /* \"#utility.yul\":1482:1556   */\n  swap3\n  pop\n    /* \"#utility.yul\":1438:1566   */\n  pop\n    /* \"#utility.yul\":1605:1607   */\n  0x20\n    /* \"#utility.yul\":1631:1695   */\n  tag_39\n    /* \"#utility.yul\":1687:1694   */\n  dup6\n    /* \"#utility.yul\":1678:1684   */\n  dup3\n    /* \"#utility.yul\":1667:1676   */\n  dup7\n    /* \"#utility.yul\":1663:1685   */\n  add\n    /* \"#utility.yul\":1631:1695   */\n  tag_16\n  jump\t// in\ntag_39:\n    /* \"#utility.yul\":1621:1695   */\n  swap2\n  pop\n    /* \"#utility.yul\":1576:1705   */\n  pop\n    /* \"#utility.yul\":1205:1712   */\n  swap3\n  pop\n  swap3\n  swap1\n  pop\n  jump\t// out\n    /* \"Campaign.sol\":447:2890  contract Campaign {... */\ntag_6:\n  dataSize(sub_0)\n  dup1\n  dataOffset(sub_0)\n  0x00\n  codecopy\n  0x00\n  return\nstop\n\nsub_0: assembly {\n        /* \"Campaign.sol\":447:2890  contract Campaign {... */\n      mstore(0x40, 0x80)\n      jumpi(tag_1, lt(calldatasize, 0x04))\n      shr(0xe0, calldataload(0x00))\n      dup1\n      0x82fde093\n      gt\n      tag_12\n      jumpi\n      dup1\n      0x82fde093\n      eq\n      tag_7\n      jumpi\n      dup1\n      0x8a9cfd55\n      eq\n      tag_8\n      jumpi\n      dup1\n      0x937e09b1\n      eq\n      tag_9\n      jumpi\n      dup1\n      0xd7bb99ba\n      eq\n      tag_10\n      jumpi\n      dup1\n      0xd7d1bbdb\n      eq\n      tag_11\n      jumpi\n      jump(tag_1)\n    tag_12:\n      dup1\n      0x03441006\n      eq\n      tag_2\n      jumpi\n      dup1\n      0x0a144391\n      eq\n      tag_3\n      jumpi\n      dup1\n      0x3410452a\n      eq\n      tag_4\n      jumpi\n      dup1\n      0x481c6a75\n      eq\n      tag_5\n      jumpi\n      dup1\n      0x81d12c58\n      eq\n      tag_6\n      jumpi\n    tag_1:\n      0x00\n      dup1\n      revert\n        /* \"Campaign.sol\":2148:2602  function finalizeRequest(uint256 index) public onlyManager {... */\n    tag_2:\n      callvalue\n      dup1\n      iszero\n      tag_13\n      jumpi\n      0x00\n      dup1\n      revert\n    tag_13:\n      pop\n      tag_14\n      0x04\n      dup1\n      calldatasize\n      sub\n      dup2\n      add\n      swap1\n      tag_15\n      swap2\n      swap1\n      tag_16\n      jump\t// in\n    tag_15:\n      tag_17\n      jump\t// in\n    tag_14:\n      stop\n        /* \"Campaign.sol\":763:804  mapping(address => bool) public approvers */\n    tag_3:\n      callvalue\n      dup1\n      iszero\n      tag_18\n      jumpi\n      0x00\n      dup1\n      revert\n    tag_18:\n      pop\n      tag_19\n      0x04\n      dup1\n      calldatasize\n      sub\n      dup2\n      add\n      swap1\n      tag_20\n      swap2\n      swap1\n      tag_21\n      jump\t// in\n    tag_20:\n      tag_22\n      jump\t// in\n    tag_19:\n      mload(0x40)\n      tag_23\n      swap2\n      swap1\n      tag_24\n      jump\t// in\n    tag_23:\n      mload(0x40)\n      dup1\n      swap2\n      sub\n      swap1\n      return\n        /* \"Campaign.sol\":2610:2705  function getRequestsCount() public view returns (uint256) {... */\n    tag_4:\n      callvalue\n      dup1\n      iszero\n      tag_25\n      jumpi\n      0x00\n      dup1\n      revert\n    tag_25:\n      pop\n      tag_26\n      tag_27\n      jump\t// in\n    tag_26:\n      mload(0x40)\n      tag_28\n      swap2\n      swap1\n      tag_29\n      jump\t// in\n    tag_28:\n      mload(0x40)\n      dup1\n      swap2\n      sub\n      swap1\n      return\n        /* \"Campaign.sol\":693:715  address public manager */\n    tag_5:\n      callvalue\n      dup1\n      iszero\n      tag_30\n      jumpi\n      0x00\n      dup1\n      revert\n    tag_30:\n      pop\n      tag_31\n      tag_32\n      jump\t// in\n    tag_31:\n      mload(0x40)\n      tag_33\n      swap2\n      swap1\n      tag_34\n      jump\t// in\n    tag_33:\n      mload(0x40)\n      dup1\n      swap2\n      sub\n      swap1\n      return\n        /* \"Campaign.sol\":875:918  mapping(uint256 => Request) public requests */\n    tag_6:\n      callvalue\n      dup1\n      iszero\n      tag_35\n      jumpi\n      0x00\n      dup1\n      revert\n    tag_35:\n      pop\n      tag_36\n      0x04\n      dup1\n      calldatasize\n      sub\n      dup2\n      add\n      swap1\n      tag_37\n      swap2\n      swap1\n      tag_16\n      jump\t// in\n    tag_37:\n      tag_38\n      jump\t// in\n    tag_36:\n      mload(0x40)\n      tag_39\n      swap6\n      swap5\n      swap4\n      swap3\n      swap2\n      swap1\n      tag_40\n      jump\t// in\n    tag_39:\n      mload(0x40)\n      dup1\n      swap2\n      sub\n      swap1\n      return\n        /* \"Campaign.sol\":811:840  uint256 public approversCount */\n    tag_7:\n      callvalue\n      dup1\n      iszero\n      tag_41\n      jumpi\n      0x00\n      dup1\n      revert\n    tag_41:\n      pop\n      tag_42\n      tag_43\n      jump\t// in\n    tag_42:\n      mload(0x40)\n      tag_44\n      swap2\n      swap1\n      tag_29\n      jump\t// in\n    tag_44:\n      mload(0x40)\n      dup1\n      swap2\n      sub\n      swap1\n      return\n        /* \"Campaign.sol\":1304:1668  function createRequest(... */\n    tag_8:\n      callvalue\n      dup1\n      iszero\n      tag_45\n      jumpi\n      0x00\n      dup1\n      revert\n    tag_45:\n      pop\n      tag_46\n      0x04\n      dup1\n      calldatasize\n      sub\n      dup2\n      add\n      swap1\n      tag_47\n      swap2\n      swap1\n      tag_48\n      jump\t// in\n    tag_47:\n      tag_49\n      jump\t// in\n    tag_46:\n      stop\n        /* \"Campaign.sol\":722:756  uint256 public minimumContribution */\n    tag_9:\n      callvalue\n      dup1\n      iszero\n      tag_50\n      jumpi\n      0x00\n      dup1\n      revert\n    tag_50:\n      pop\n      tag_51\n      tag_52\n      jump\t// in\n    tag_51:\n      mload(0x40)\n      tag_53\n      swap2\n      swap1\n      tag_29\n      jump\t// in\n    tag_53:\n      mload(0x40)\n      dup1\n      swap2\n      sub\n      swap1\n      return\n        /* \"Campaign.sol\":1057:1296  function contribute() public payable {... */\n    tag_10:\n      tag_54\n      tag_55\n      jump\t// in\n    tag_54:\n      stop\n        /* \"Campaign.sol\":1676:2140  function approveRequest(uint256 index) public {... */\n    tag_11:\n      callvalue\n      dup1\n      iszero\n      tag_56\n      jumpi\n      0x00\n      dup1\n      revert\n    tag_56:\n      pop\n      tag_57\n      0x04\n      dup1\n      calldatasize\n      sub\n      dup2\n      add\n      swap1\n      tag_58\n      swap2\n      swap1\n      tag_16\n      jump\t// in\n    tag_58:\n      tag_59\n      jump\t// in\n    tag_57:\n      stop\n        /* \"Campaign.sol\":2148:2602  function finalizeRequest(uint256 index) public onlyManager {... */\n    tag_17:\n        /* \"Campaign.sol\":2783:2790  manager */\n      0x00\n      dup1\n      sload\n      swap1\n      0x0100\n      exp\n      swap1\n      div\n      0xffffffffffffffffffffffffffffffffffffffff\n      and\n        /* \"Campaign.sol\":2769:2790  msg.sender == manager */\n      0xffffffffffffffffffffffffffffffffffffffff\n      and\n        /* \"Campaign.sol\":2769:2779  msg.sender */\n      caller\n        /* \"Campaign.sol\":2769:2790  msg.sender == manager */\n      0xffffffffffffffffffffffffffffffffffffffff\n      and\n      eq\n        /* \"Campaign.sol\":2747:2867  require(... */\n      tag_61\n      jumpi\n      mload(0x40)\n      0x08c379a000000000000000000000000000000000000000000000000000000000\n      dup2\n      mstore\n      0x04\n      add\n      tag_62\n      swap1\n      tag_63\n      jump\t// in\n    tag_62:\n      mload(0x40)\n      dup1\n      swap2\n      sub\n      swap1\n      revert\n    tag_61:\n        /* \"Campaign.sol\":2218:2241  Request storage request */\n      0x00\n        /* \"Campaign.sol\":2244:2252  requests */\n      0x05\n        /* \"Campaign.sol\":2244:2259  requests[index] */\n      0x00\n        /* \"Campaign.sol\":2253:2258  index */\n      dup4\n        /* \"Campaign.sol\":2244:2259  requests[index] */\n      dup2\n      mstore\n      0x20\n      add\n      swap1\n      dup2\n      mstore\n      0x20\n      add\n      0x00\n      keccak256\n        /* \"Campaign.sol\":2218:2259  Request storage request = requests[index] */\n      swap1\n      pop\n        /* \"Campaign.sol\":2334:2335  2 */\n      0x02\n        /* \"Campaign.sol\":2317:2331  approversCount */\n      sload(0x03)\n        /* \"Campaign.sol\":2317:2335  approversCount / 2 */\n      tag_65\n      swap2\n      swap1\n      tag_66\n      jump\t// in\n    tag_65:\n        /* \"Campaign.sol\":2292:2299  request */\n      dup2\n        /* \"Campaign.sol\":2292:2313  request.approvalCount */\n      0x03\n      add\n      sload\n        /* \"Campaign.sol\":2292:2336  request.approvalCount > (approversCount / 2) */\n      gt\n        /* \"Campaign.sol\":2270:2424  require(... */\n      tag_67\n      jumpi\n      mload(0x40)\n      0x08c379a000000000000000000000000000000000000000000000000000000000\n      dup2\n      mstore\n      0x04\n      add\n      tag_68\n      swap1\n      tag_69\n      jump\t// in\n    tag_68:\n      mload(0x40)\n      dup1\n      swap2\n      sub\n      swap1\n      revert\n    tag_67:\n        /* \"Campaign.sol\":2445:2452  request */\n      dup1\n        /* \"Campaign.sol\":2445:2461  request.complete */\n      0x02\n      add\n      0x14\n      swap1\n      sload\n      swap1\n      0x0100\n      exp\n      swap1\n      div\n      0xff\n      and\n        /* \"Campaign.sol\":2443:2462  !(request.complete) */\n      iszero\n        /* \"Campaign.sol\":2435:2506  require(!(request.complete), \"This request has already been finalized\") */\n      tag_70\n      jumpi\n      mload(0x40)\n      0x08c379a000000000000000000000000000000000000000000000000000000000\n      dup2\n      mstore\n      0x04\n      add\n      tag_71\n      swap1\n      tag_72\n      jump\t// in\n    tag_71:\n      mload(0x40)\n      dup1\n      swap2\n      sub\n      swap1\n      revert\n    tag_70:\n        /* \"Campaign.sol\":2519:2526  request */\n      dup1\n        /* \"Campaign.sol\":2519:2536  request.recipient */\n      0x02\n      add\n      0x00\n      swap1\n      sload\n      swap1\n      0x0100\n      exp\n      swap1\n      div\n      0xffffffffffffffffffffffffffffffffffffffff\n      and\n        /* \"Campaign.sol\":2519:2545  request.recipient.transfer */\n      0xffffffffffffffffffffffffffffffffffffffff\n      and\n        /* \"Campaign.sol\":2519:2560  request.recipient.transfer(request.value) */\n      0x08fc\n        /* \"Campaign.sol\":2546:2553  request */\n      dup3\n        /* \"Campaign.sol\":2546:2559  request.value */\n      0x01\n      add\n      sload\n        /* \"Campaign.sol\":2519:2560  request.recipient.transfer(request.value) */\n      swap1\n      dup2\n      iszero\n      mul\n      swap1\n      mload(0x40)\n      0x00\n      mload(0x40)\n      dup1\n      dup4\n      sub\n      dup2\n      dup6\n      dup9\n      dup9\n      call\n      swap4\n      pop\n      pop\n      pop\n      pop\n      iszero\n      dup1\n      iszero\n      tag_74\n      jumpi\n      returndatasize\n      0x00\n      dup1\n      returndatacopy\n      revert(0x00, returndatasize)\n    tag_74:\n      pop\n        /* \"Campaign.sol\":2590:2594  true */\n      0x01\n        /* \"Campaign.sol\":2571:2578  request */\n      dup2\n        /* \"Campaign.sol\":2571:2587  request.complete */\n      0x02\n      add\n      0x14\n        /* \"Campaign.sol\":2571:2594  request.complete = true */\n      0x0100\n      exp\n      dup2\n      sload\n      dup2\n      0xff\n      mul\n      not\n      and\n      swap1\n      dup4\n      iszero\n      iszero\n      mul\n      or\n      swap1\n      sstore\n      pop\n        /* \"Campaign.sol\":2207:2602  {... */\n      pop\n        /* \"Campaign.sol\":2148:2602  function finalizeRequest(uint256 index) public onlyManager {... */\n      pop\n      jump\t// out\n        /* \"Campaign.sol\":763:804  mapping(address => bool) public approvers */\n    tag_22:\n      mstore(0x20, 0x02)\n      dup1\n      0x00\n      mstore\n      keccak256(0x00, 0x40)\n      0x00\n      swap2\n      pop\n      sload\n      swap1\n      0x0100\n      exp\n      swap1\n      div\n      0xff\n      and\n      dup2\n      jump\t// out\n        /* \"Campaign.sol\":2610:2705  function getRequestsCount() public view returns (uint256) {... */\n    tag_27:\n        /* \"Campaign.sol\":2659:2666  uint256 */\n      0x00\n        /* \"Campaign.sol\":2686:2697  numRequests */\n      sload(0x04)\n        /* \"Campaign.sol\":2679:2697  return numRequests */\n      swap1\n      pop\n        /* \"Campaign.sol\":2610:2705  function getRequestsCount() public view returns (uint256) {... */\n      swap1\n      jump\t// out\n        /* \"Campaign.sol\":693:715  address public manager */\n    tag_32:\n      0x00\n      dup1\n      sload\n      swap1\n      0x0100\n      exp\n      swap1\n      div\n      0xffffffffffffffffffffffffffffffffffffffff\n      and\n      dup2\n      jump\t// out\n        /* \"Campaign.sol\":875:918  mapping(uint256 => Request) public requests */\n    tag_38:\n      mstore(0x20, 0x05)\n      dup1\n      0x00\n      mstore\n      keccak256(0x00, 0x40)\n      0x00\n      swap2\n      pop\n      swap1\n      pop\n      dup1\n      0x00\n      add\n      dup1\n      sload\n      tag_76\n      swap1\n      tag_77\n      jump\t// in\n    tag_76:\n      dup1\n      0x1f\n      add\n      0x20\n      dup1\n      swap2\n      div\n      mul\n      0x20\n      add\n      mload(0x40)\n      swap1\n      dup2\n      add\n      0x40\n      mstore\n      dup1\n      swap3\n      swap2\n      swap1\n      dup2\n      dup2\n      mstore\n      0x20\n      add\n      dup3\n      dup1\n      sload\n      tag_78\n      swap1\n      tag_77\n      jump\t// in\n    tag_78:\n      dup1\n      iszero\n      tag_79\n      jumpi\n      dup1\n      0x1f\n      lt\n      tag_80\n      jumpi\n      0x0100\n      dup1\n      dup4\n      sload\n      div\n      mul\n      dup4\n      mstore\n      swap2\n      0x20\n      add\n      swap2\n      jump(tag_79)\n    tag_80:\n      dup3\n      add\n      swap2\n      swap1\n      0x00\n      mstore\n      keccak256(0x00, 0x20)\n      swap1\n    tag_81:\n      dup2\n      sload\n      dup2\n      mstore\n      swap1\n      0x01\n      add\n      swap1\n      0x20\n      add\n      dup1\n      dup4\n      gt\n      tag_81\n      jumpi\n      dup3\n      swap1\n      sub\n      0x1f\n      and\n      dup3\n      add\n      swap2\n    tag_79:\n      pop\n      pop\n      pop\n      pop\n      pop\n      swap1\n      dup1\n      0x01\n      add\n      sload\n      swap1\n      dup1\n      0x02\n      add\n      0x00\n      swap1\n      sload\n      swap1\n      0x0100\n      exp\n      swap1\n      div\n      0xffffffffffffffffffffffffffffffffffffffff\n      and\n      swap1\n      dup1\n      0x02\n      add\n      0x14\n      swap1\n      sload\n      swap1\n      0x0100\n      exp\n      swap1\n      div\n      0xff\n      and\n      swap1\n      dup1\n      0x03\n      add\n      sload\n      swap1\n      pop\n      dup6\n      jump\t// out\n        /* \"Campaign.sol\":811:840  uint256 public approversCount */\n    tag_43:\n      sload(0x03)\n      dup2\n      jump\t// out\n        /* \"Campaign.sol\":1304:1668  function createRequest(... */\n    tag_49:\n        /* \"Campaign.sol\":2783:2790  manager */\n      0x00\n      dup1\n      sload\n      swap1\n      0x0100\n      exp\n      swap1\n      div\n      0xffffffffffffffffffffffffffffffffffffffff\n      and\n        /* \"Campaign.sol\":2769:2790  msg.sender == manager */\n      0xffffffffffffffffffffffffffffffffffffffff\n      and\n        /* \"Campaign.sol\":2769:2779  msg.sender */\n      caller\n        /* \"Campaign.sol\":2769:2790  msg.sender == manager */\n      0xffffffffffffffffffffffffffffffffffffffff\n      and\n      eq\n        /* \"Campaign.sol\":2747:2867  require(... */\n      tag_83\n      jumpi\n      mload(0x40)\n      0x08c379a000000000000000000000000000000000000000000000000000000000\n      dup2\n      mstore\n      0x04\n      add\n      tag_84\n      swap1\n      tag_63\n      jump\t// in\n    tag_84:\n      mload(0x40)\n      dup1\n      swap2\n      sub\n      swap1\n      revert\n    tag_83:\n        /* \"Campaign.sol\":1460:1477  Request storage r */\n      0x00\n        /* \"Campaign.sol\":1480:1488  requests */\n      0x05\n        /* \"Campaign.sol\":1480:1503  requests[numRequests++] */\n      0x00\n        /* \"Campaign.sol\":1489:1500  numRequests */\n      0x04\n      0x00\n        /* \"Campaign.sol\":1489:1502  numRequests++ */\n      dup2\n      sload\n      dup1\n      swap3\n      swap2\n      swap1\n      tag_86\n      swap1\n      tag_87\n      jump\t// in\n    tag_86:\n      swap2\n      swap1\n      pop\n      sstore\n        /* \"Campaign.sol\":1480:1503  requests[numRequests++] */\n      dup2\n      mstore\n      0x20\n      add\n      swap1\n      dup2\n      mstore\n      0x20\n      add\n      0x00\n      keccak256\n        /* \"Campaign.sol\":1460:1503  Request storage r = requests[numRequests++] */\n      swap1\n      pop\n        /* \"Campaign.sol\":1530:1541  description */\n      dup4\n        /* \"Campaign.sol\":1514:1515  r */\n      dup2\n        /* \"Campaign.sol\":1514:1527  r.description */\n      0x00\n      add\n        /* \"Campaign.sol\":1514:1541  r.description = description */\n      swap1\n      dup1\n      mload\n      swap1\n      0x20\n      add\n      swap1\n      tag_88\n      swap3\n      swap2\n      swap1\n      tag_89\n      jump\t// in\n    tag_88:\n      pop\n        /* \"Campaign.sol\":1562:1567  value */\n      dup3\n        /* \"Campaign.sol\":1552:1553  r */\n      dup2\n        /* \"Campaign.sol\":1552:1559  r.value */\n      0x01\n      add\n        /* \"Campaign.sol\":1552:1567  r.value = value */\n      dup2\n      swap1\n      sstore\n      pop\n        /* \"Campaign.sol\":1592:1601  recipient */\n      dup2\n        /* \"Campaign.sol\":1578:1579  r */\n      dup2\n        /* \"Campaign.sol\":1578:1589  r.recipient */\n      0x02\n      add\n      0x00\n        /* \"Campaign.sol\":1578:1601  r.recipient = recipient */\n      0x0100\n      exp\n      dup2\n      sload\n      dup2\n      0xffffffffffffffffffffffffffffffffffffffff\n      mul\n      not\n      and\n      swap1\n      dup4\n      0xffffffffffffffffffffffffffffffffffffffff\n      and\n      mul\n      or\n      swap1\n      sstore\n      pop\n        /* \"Campaign.sol\":1625:1630  false */\n      0x00\n        /* \"Campaign.sol\":1612:1613  r */\n      dup2\n        /* \"Campaign.sol\":1612:1622  r.complete */\n      0x02\n      add\n      0x14\n        /* \"Campaign.sol\":1612:1630  r.complete = false */\n      0x0100\n      exp\n      dup2\n      sload\n      dup2\n      0xff\n      mul\n      not\n      and\n      swap1\n      dup4\n      iszero\n      iszero\n      mul\n      or\n      swap1\n      sstore\n      pop\n        /* \"Campaign.sol\":1659:1660  0 */\n      0x00\n        /* \"Campaign.sol\":1641:1642  r */\n      dup2\n        /* \"Campaign.sol\":1641:1656  r.approvalCount */\n      0x03\n      add\n        /* \"Campaign.sol\":1641:1660  r.approvalCount = 0 */\n      dup2\n      swap1\n      sstore\n      pop\n        /* \"Campaign.sol\":1449:1668  {... */\n      pop\n        /* \"Campaign.sol\":1304:1668  function createRequest(... */\n      pop\n      pop\n      pop\n      jump\t// out\n        /* \"Campaign.sol\":722:756  uint256 public minimumContribution */\n    tag_52:\n      sload(0x01)\n      dup2\n      jump\t// out\n        /* \"Campaign.sol\":1057:1296  function contribute() public payable {... */\n    tag_55:\n        /* \"Campaign.sol\":1140:1159  minimumContribution */\n      sload(0x01)\n        /* \"Campaign.sol\":1127:1136  msg.value */\n      callvalue\n        /* \"Campaign.sol\":1127:1159  msg.value >= minimumContribution */\n      lt\n      iszero\n        /* \"Campaign.sol\":1105:1222  require(... */\n      tag_91\n      jumpi\n      mload(0x40)\n      0x08c379a000000000000000000000000000000000000000000000000000000000\n      dup2\n      mstore\n      0x04\n      add\n      tag_92\n      swap1\n      tag_93\n      jump\t// in\n    tag_92:\n      mload(0x40)\n      dup1\n      swap2\n      sub\n      swap1\n      revert\n    tag_91:\n        /* \"Campaign.sol\":1257:1261  true */\n      0x01\n        /* \"Campaign.sol\":1233:1242  approvers */\n      0x02\n        /* \"Campaign.sol\":1233:1254  approvers[msg.sender] */\n      0x00\n        /* \"Campaign.sol\":1243:1253  msg.sender */\n      caller\n        /* \"Campaign.sol\":1233:1254  approvers[msg.sender] */\n      0xffffffffffffffffffffffffffffffffffffffff\n      and\n      0xffffffffffffffffffffffffffffffffffffffff\n      and\n      dup2\n      mstore\n      0x20\n      add\n      swap1\n      dup2\n      mstore\n      0x20\n      add\n      0x00\n      keccak256\n      0x00\n        /* \"Campaign.sol\":1233:1261  approvers[msg.sender] = true */\n      0x0100\n      exp\n      dup2\n      sload\n      dup2\n      0xff\n      mul\n      not\n      and\n      swap1\n      dup4\n      iszero\n      iszero\n      mul\n      or\n      swap1\n      sstore\n      pop\n        /* \"Campaign.sol\":1272:1286  approversCount */\n      0x03\n      0x00\n        /* \"Campaign.sol\":1272:1288  approversCount++ */\n      dup2\n      sload\n      dup1\n      swap3\n      swap2\n      swap1\n      tag_94\n      swap1\n      tag_87\n      jump\t// in\n    tag_94:\n      swap2\n      swap1\n      pop\n      sstore\n      pop\n        /* \"Campaign.sol\":1057:1296  function contribute() public payable {... */\n      jump\t// out\n        /* \"Campaign.sol\":1676:2140  function approveRequest(uint256 index) public {... */\n    tag_59:\n        /* \"Campaign.sol\":1733:1756  Request storage request */\n      0x00\n        /* \"Campaign.sol\":1759:1767  requests */\n      0x05\n        /* \"Campaign.sol\":1759:1774  requests[index] */\n      0x00\n        /* \"Campaign.sol\":1768:1773  index */\n      dup4\n        /* \"Campaign.sol\":1759:1774  requests[index] */\n      dup2\n      mstore\n      0x20\n      add\n      swap1\n      dup2\n      mstore\n      0x20\n      add\n      0x00\n      keccak256\n        /* \"Campaign.sol\":1733:1774  Request storage request = requests[index] */\n      swap1\n      pop\n        /* \"Campaign.sol\":1807:1816  approvers */\n      0x02\n        /* \"Campaign.sol\":1807:1828  approvers[msg.sender] */\n      0x00\n        /* \"Campaign.sol\":1817:1827  msg.sender */\n      caller\n        /* \"Campaign.sol\":1807:1828  approvers[msg.sender] */\n      0xffffffffffffffffffffffffffffffffffffffff\n      and\n      0xffffffffffffffffffffffffffffffffffffffff\n      and\n      dup2\n      mstore\n      0x20\n      add\n      swap1\n      dup2\n      mstore\n      0x20\n      add\n      0x00\n      keccak256\n      0x00\n      swap1\n      sload\n      swap1\n      0x0100\n      exp\n      swap1\n      div\n      0xff\n      and\n        /* \"Campaign.sol\":1785:1912  require(... */\n      tag_96\n      jumpi\n      mload(0x40)\n      0x08c379a000000000000000000000000000000000000000000000000000000000\n      dup2\n      mstore\n      0x04\n      add\n      tag_97\n      swap1\n      tag_98\n      jump\t// in\n    tag_97:\n      mload(0x40)\n      dup1\n      swap2\n      sub\n      swap1\n      revert\n    tag_96:\n        /* \"Campaign.sol\":1946:1953  request */\n      dup1\n        /* \"Campaign.sol\":1946:1963  request.approvals */\n      0x04\n      add\n        /* \"Campaign.sol\":1946:1975  request.approvals[msg.sender] */\n      0x00\n        /* \"Campaign.sol\":1964:1974  msg.sender */\n      caller\n        /* \"Campaign.sol\":1946:1975  request.approvals[msg.sender] */\n      0xffffffffffffffffffffffffffffffffffffffff\n      and\n      0xffffffffffffffffffffffffffffffffffffffff\n      and\n      dup2\n      mstore\n      0x20\n      add\n      swap1\n      dup2\n      mstore\n      0x20\n      add\n      0x00\n      keccak256\n      0x00\n      swap1\n      sload\n      swap1\n      0x0100\n      exp\n      swap1\n      div\n      0xff\n      and\n        /* \"Campaign.sol\":1945:1975  !request.approvals[msg.sender] */\n      iszero\n        /* \"Campaign.sol\":1923:2049  require(... */\n      tag_99\n      jumpi\n      mload(0x40)\n      0x08c379a000000000000000000000000000000000000000000000000000000000\n      dup2\n      mstore\n      0x04\n      add\n      tag_100\n      swap1\n      tag_101\n      jump\t// in\n    tag_100:\n      mload(0x40)\n      dup1\n      swap2\n      sub\n      swap1\n      revert\n    tag_99:\n        /* \"Campaign.sol\":2094:2098  true */\n      0x01\n        /* \"Campaign.sol\":2062:2069  request */\n      dup2\n        /* \"Campaign.sol\":2062:2079  request.approvals */\n      0x04\n      add\n        /* \"Campaign.sol\":2062:2091  request.approvals[msg.sender] */\n      0x00\n        /* \"Campaign.sol\":2080:2090  msg.sender */\n      caller\n        /* \"Campaign.sol\":2062:2091  request.approvals[msg.sender] */\n      0xffffffffffffffffffffffffffffffffffffffff\n      and\n      0xffffffffffffffffffffffffffffffffffffffff\n      and\n      dup2\n      mstore\n      0x20\n      add\n      swap1\n      dup2\n      mstore\n      0x20\n      add\n      0x00\n      keccak256\n      0x00\n        /* \"Campaign.sol\":2062:2098  request.approvals[msg.sender] = true */\n      0x0100\n      exp\n      dup2\n      sload\n      dup2\n      0xff\n      mul\n      not\n      and\n      swap1\n      dup4\n      iszero\n      iszero\n      mul\n      or\n      swap1\n      sstore\n      pop\n        /* \"Campaign.sol\":2109:2116  request */\n      dup1\n        /* \"Campaign.sol\":2109:2130  request.approvalCount */\n      0x03\n      add\n      0x00\n        /* \"Campaign.sol\":2109:2132  request.approvalCount++ */\n      dup2\n      sload\n      dup1\n      swap3\n      swap2\n      swap1\n      tag_102\n      swap1\n      tag_87\n      jump\t// in\n    tag_102:\n      swap2\n      swap1\n      pop\n      sstore\n      pop\n        /* \"Campaign.sol\":1722:2140  {... */\n      pop\n        /* \"Campaign.sol\":1676:2140  function approveRequest(uint256 index) public {... */\n      pop\n      jump\t// out\n    tag_89:\n      dup3\n      dup1\n      sload\n      tag_103\n      swap1\n      tag_77\n      jump\t// in\n    tag_103:\n      swap1\n      0x00\n      mstore\n      keccak256(0x00, 0x20)\n      swap1\n      0x1f\n      add\n      0x20\n      swap1\n      div\n      dup2\n      add\n      swap3\n      dup3\n      tag_105\n      jumpi\n      0x00\n      dup6\n      sstore\n      jump(tag_104)\n    tag_105:\n      dup3\n      0x1f\n      lt\n      tag_106\n      jumpi\n      dup1\n      mload\n      not(0xff)\n      and\n      dup4\n      dup1\n      add\n      or\n      dup6\n      sstore\n      jump(tag_104)\n    tag_106:\n      dup3\n      dup1\n      add\n      0x01\n      add\n      dup6\n      sstore\n      dup3\n      iszero\n      tag_104\n      jumpi\n      swap2\n      dup3\n      add\n    tag_107:\n      dup3\n      dup2\n      gt\n      iszero\n      tag_108\n      jumpi\n      dup3\n      mload\n      dup3\n      sstore\n      swap2\n      0x20\n      add\n      swap2\n      swap1\n      0x01\n      add\n      swap1\n      jump(tag_107)\n    tag_108:\n    tag_104:\n      pop\n      swap1\n      pop\n      tag_109\n      swap2\n      swap1\n      tag_110\n      jump\t// in\n    tag_109:\n      pop\n      swap1\n      jump\t// out\n    tag_110:\n    tag_111:\n      dup1\n      dup3\n      gt\n      iszero\n      tag_112\n      jumpi\n      0x00\n      dup2\n      0x00\n      swap1\n      sstore\n      pop\n      0x01\n      add\n      jump(tag_111)\n    tag_112:\n      pop\n      swap1\n      jump\t// out\n        /* \"#utility.yul\":7:82   */\n    tag_113:\n        /* \"#utility.yul\":40:46   */\n      0x00\n        /* \"#utility.yul\":73:75   */\n      0x40\n        /* \"#utility.yul\":67:76   */\n      mload\n        /* \"#utility.yul\":57:76   */\n      swap1\n      pop\n        /* \"#utility.yul\":7:82   */\n      swap1\n      jump\t// out\n        /* \"#utility.yul\":88:205   */\n    tag_114:\n        /* \"#utility.yul\":197:198   */\n      0x00\n        /* \"#utility.yul\":194:195   */\n      dup1\n        /* \"#utility.yul\":187:199   */\n      revert\n        /* \"#utility.yul\":211:328   */\n    tag_115:\n        /* \"#utility.yul\":320:321   */\n      0x00\n        /* \"#utility.yul\":317:318   */\n      dup1\n        /* \"#utility.yul\":310:322   */\n      revert\n        /* \"#utility.yul\":334:411   */\n    tag_116:\n        /* \"#utility.yul\":371:378   */\n      0x00\n        /* \"#utility.yul\":400:405   */\n      dup2\n        /* \"#utility.yul\":389:405   */\n      swap1\n      pop\n        /* \"#utility.yul\":334:411   */\n      swap2\n      swap1\n      pop\n      jump\t// out\n        /* \"#utility.yul\":417:539   */\n    tag_117:\n        /* \"#utility.yul\":490:514   */\n      tag_166\n        /* \"#utility.yul\":508:513   */\n      dup2\n        /* \"#utility.yul\":490:514   */\n      tag_116\n      jump\t// in\n    tag_166:\n        /* \"#utility.yul\":483:488   */\n      dup2\n        /* \"#utility.yul\":480:515   */\n      eq\n        /* \"#utility.yul\":470:533   */\n      tag_167\n      jumpi\n        /* \"#utility.yul\":529:530   */\n      0x00\n        /* \"#utility.yul\":526:527   */\n      dup1\n        /* \"#utility.yul\":519:531   */\n      revert\n        /* \"#utility.yul\":470:533   */\n    tag_167:\n        /* \"#utility.yul\":417:539   */\n      pop\n      jump\t// out\n        /* \"#utility.yul\":545:684   */\n    tag_118:\n        /* \"#utility.yul\":591:596   */\n      0x00\n        /* \"#utility.yul\":629:635   */\n      dup2\n        /* \"#utility.yul\":616:636   */\n      calldataload\n        /* \"#utility.yul\":607:636   */\n      swap1\n      pop\n        /* \"#utility.yul\":645:678   */\n      tag_169\n        /* \"#utility.yul\":672:677   */\n      dup2\n        /* \"#utility.yul\":645:678   */\n      tag_117\n      jump\t// in\n    tag_169:\n        /* \"#utility.yul\":545:684   */\n      swap3\n      swap2\n      pop\n      pop\n      jump\t// out\n        /* \"#utility.yul\":690:1019   */\n    tag_16:\n        /* \"#utility.yul\":749:755   */\n      0x00\n        /* \"#utility.yul\":798:800   */\n      0x20\n        /* \"#utility.yul\":786:795   */\n      dup3\n        /* \"#utility.yul\":777:784   */\n      dup5\n        /* \"#utility.yul\":773:796   */\n      sub\n        /* \"#utility.yul\":769:801   */\n      slt\n        /* \"#utility.yul\":766:885   */\n      iszero\n      tag_171\n      jumpi\n        /* \"#utility.yul\":804:883   */\n      tag_172\n      tag_114\n      jump\t// in\n    tag_172:\n        /* \"#utility.yul\":766:885   */\n    tag_171:\n        /* \"#utility.yul\":924:925   */\n      0x00\n        /* \"#utility.yul\":949:1002   */\n      tag_173\n        /* \"#utility.yul\":994:1001   */\n      dup5\n        /* \"#utility.yul\":985:991   */\n      dup3\n        /* \"#utility.yul\":974:983   */\n      dup6\n        /* \"#utility.yul\":970:992   */\n      add\n        /* \"#utility.yul\":949:1002   */\n      tag_118\n      jump\t// in\n    tag_173:\n        /* \"#utility.yul\":939:1002   */\n      swap2\n      pop\n        /* \"#utility.yul\":895:1012   */\n      pop\n        /* \"#utility.yul\":690:1019   */\n      swap3\n      swap2\n      pop\n      pop\n      jump\t// out\n        /* \"#utility.yul\":1025:1151   */\n    tag_119:\n        /* \"#utility.yul\":1062:1069   */\n      0x00\n        /* \"#utility.yul\":1102:1144   */\n      0xffffffffffffffffffffffffffffffffffffffff\n        /* \"#utility.yul\":1095:1100   */\n      dup3\n        /* \"#utility.yul\":1091:1145   */\n      and\n        /* \"#utility.yul\":1080:1145   */\n      swap1\n      pop\n        /* \"#utility.yul\":1025:1151   */\n      swap2\n      swap1\n      pop\n      jump\t// out\n        /* \"#utility.yul\":1157:1253   */\n    tag_120:\n        /* \"#utility.yul\":1194:1201   */\n      0x00\n        /* \"#utility.yul\":1223:1247   */\n      tag_176\n        /* \"#utility.yul\":1241:1246   */\n      dup3\n        /* \"#utility.yul\":1223:1247   */\n      tag_119\n      jump\t// in\n    tag_176:\n        /* \"#utility.yul\":1212:1247   */\n      swap1\n      pop\n        /* \"#utility.yul\":1157:1253   */\n      swap2\n      swap1\n      pop\n      jump\t// out\n        /* \"#utility.yul\":1259:1381   */\n    tag_121:\n        /* \"#utility.yul\":1332:1356   */\n      tag_178\n        /* \"#utility.yul\":1350:1355   */\n      dup2\n        /* \"#utility.yul\":1332:1356   */\n      tag_120\n      jump\t// in\n    tag_178:\n        /* \"#utility.yul\":1325:1330   */\n      dup2\n        /* \"#utility.yul\":1322:1357   */\n      eq\n        /* \"#utility.yul\":1312:1375   */\n      tag_179\n      jumpi\n        /* \"#utility.yul\":1371:1372   */\n      0x00\n        /* \"#utility.yul\":1368:1369   */\n      dup1\n        /* \"#utility.yul\":1361:1373   */\n      revert\n        /* \"#utility.yul\":1312:1375   */\n    tag_179:\n        /* \"#utility.yul\":1259:1381   */\n      pop\n      jump\t// out\n        /* \"#utility.yul\":1387:1526   */\n    tag_122:\n        /* \"#utility.yul\":1433:1438   */\n      0x00\n        /* \"#utility.yul\":1471:1477   */\n      dup2\n        /* \"#utility.yul\":1458:1478   */\n      calldataload\n        /* \"#utility.yul\":1449:1478   */\n      swap1\n      pop\n        /* \"#utility.yul\":1487:1520   */\n      tag_181\n        /* \"#utility.yul\":1514:1519   */\n      dup2\n        /* \"#utility.yul\":1487:1520   */\n      tag_121\n      jump\t// in\n    tag_181:\n        /* \"#utility.yul\":1387:1526   */\n      swap3\n      swap2\n      pop\n      pop\n      jump\t// out\n        /* \"#utility.yul\":1532:1861   */\n    tag_21:\n        /* \"#utility.yul\":1591:1597   */\n      0x00\n        /* \"#utility.yul\":1640:1642   */\n      0x20\n        /* \"#utility.yul\":1628:1637   */\n      dup3\n        /* \"#utility.yul\":1619:1626   */\n      dup5\n        /* \"#utility.yul\":1615:1638   */\n      sub\n        /* \"#utility.yul\":1611:1643   */\n      slt\n        /* \"#utility.yul\":1608:1727   */\n      iszero\n      tag_183\n      jumpi\n        /* \"#utility.yul\":1646:1725   */\n      tag_184\n      tag_114\n      jump\t// in\n    tag_184:\n        /* \"#utility.yul\":1608:1727   */\n    tag_183:\n        /* \"#utility.yul\":1766:1767   */\n      0x00\n        /* \"#utility.yul\":1791:1844   */\n      tag_185\n        /* \"#utility.yul\":1836:1843   */\n      dup5\n        /* \"#utility.yul\":1827:1833   */\n      dup3\n        /* \"#utility.yul\":1816:1825   */\n      dup6\n        /* \"#utility.yul\":1812:1834   */\n      add\n        /* \"#utility.yul\":1791:1844   */\n      tag_122\n      jump\t// in\n    tag_185:\n        /* \"#utility.yul\":1781:1844   */\n      swap2\n      pop\n        /* \"#utility.yul\":1737:1854   */\n      pop\n        /* \"#utility.yul\":1532:1861   */\n      swap3\n      swap2\n      pop\n      pop\n      jump\t// out\n        /* \"#utility.yul\":1867:1957   */\n    tag_123:\n        /* \"#utility.yul\":1901:1908   */\n      0x00\n        /* \"#utility.yul\":1944:1949   */\n      dup2\n        /* \"#utility.yul\":1937:1950   */\n      iszero\n        /* \"#utility.yul\":1930:1951   */\n      iszero\n        /* \"#utility.yul\":1919:1951   */\n      swap1\n      pop\n        /* \"#utility.yul\":1867:1957   */\n      swap2\n      swap1\n      pop\n      jump\t// out\n        /* \"#utility.yul\":1963:2072   */\n    tag_124:\n        /* \"#utility.yul\":2044:2065   */\n      tag_188\n        /* \"#utility.yul\":2059:2064   */\n      dup2\n        /* \"#utility.yul\":2044:2065   */\n      tag_123\n      jump\t// in\n    tag_188:\n        /* \"#utility.yul\":2039:2042   */\n      dup3\n        /* \"#utility.yul\":2032:2066   */\n      mstore\n        /* \"#utility.yul\":1963:2072   */\n      pop\n      pop\n      jump\t// out\n        /* \"#utility.yul\":2078:2288   */\n    tag_24:\n        /* \"#utility.yul\":2165:2169   */\n      0x00\n        /* \"#utility.yul\":2203:2205   */\n      0x20\n        /* \"#utility.yul\":2192:2201   */\n      dup3\n        /* \"#utility.yul\":2188:2206   */\n      add\n        /* \"#utility.yul\":2180:2206   */\n      swap1\n      pop\n        /* \"#utility.yul\":2216:2281   */\n      tag_190\n        /* \"#utility.yul\":2278:2279   */\n      0x00\n        /* \"#utility.yul\":2267:2276   */\n      dup4\n        /* \"#utility.yul\":2263:2280   */\n      add\n        /* \"#utility.yul\":2254:2260   */\n      dup5\n        /* \"#utility.yul\":2216:2281   */\n      tag_124\n      jump\t// in\n    tag_190:\n        /* \"#utility.yul\":2078:2288   */\n      swap3\n      swap2\n      pop\n      pop\n      jump\t// out\n        /* \"#utility.yul\":2294:2412   */\n    tag_125:\n        /* \"#utility.yul\":2381:2405   */\n      tag_192\n        /* \"#utility.yul\":2399:2404   */\n      dup2\n        /* \"#utility.yul\":2381:2405   */\n      tag_116\n      jump\t// in\n    tag_192:\n        /* \"#utility.yul\":2376:2379   */\n      dup3\n        /* \"#utility.yul\":2369:2406   */\n      mstore\n        /* \"#utility.yul\":2294:2412   */\n      pop\n      pop\n      jump\t// out\n        /* \"#utility.yul\":2418:2640   */\n    tag_29:\n        /* \"#utility.yul\":2511:2515   */\n      0x00\n        /* \"#utility.yul\":2549:2551   */\n      0x20\n        /* \"#utility.yul\":2538:2547   */\n      dup3\n        /* \"#utility.yul\":2534:2552   */\n      add\n        /* \"#utility.yul\":2526:2552   */\n      swap1\n      pop\n        /* \"#utility.yul\":2562:2633   */\n      tag_194\n        /* \"#utility.yul\":2630:2631   */\n      0x00\n        /* \"#utility.yul\":2619:2628   */\n      dup4\n        /* \"#utility.yul\":2615:2632   */\n      add\n        /* \"#utility.yul\":2606:2612   */\n      dup5\n        /* \"#utility.yul\":2562:2633   */\n      tag_125\n      jump\t// in\n    tag_194:\n        /* \"#utility.yul\":2418:2640   */\n      swap3\n      swap2\n      pop\n      pop\n      jump\t// out\n        /* \"#utility.yul\":2646:2764   */\n    tag_126:\n        /* \"#utility.yul\":2733:2757   */\n      tag_196\n        /* \"#utility.yul\":2751:2756   */\n      dup2\n        /* \"#utility.yul\":2733:2757   */\n      tag_120\n      jump\t// in\n    tag_196:\n        /* \"#utility.yul\":2728:2731   */\n      dup3\n        /* \"#utility.yul\":2721:2758   */\n      mstore\n        /* \"#utility.yul\":2646:2764   */\n      pop\n      pop\n      jump\t// out\n        /* \"#utility.yul\":2770:2992   */\n    tag_34:\n        /* \"#utility.yul\":2863:2867   */\n      0x00\n        /* \"#utility.yul\":2901:2903   */\n      0x20\n        /* \"#utility.yul\":2890:2899   */\n      dup3\n        /* \"#utility.yul\":2886:2904   */\n      add\n        /* \"#utility.yul\":2878:2904   */\n      swap1\n      pop\n        /* \"#utility.yul\":2914:2985   */\n      tag_198\n        /* \"#utility.yul\":2982:2983   */\n      0x00\n        /* \"#utility.yul\":2971:2980   */\n      dup4\n        /* \"#utility.yul\":2967:2984   */\n      add\n        /* \"#utility.yul\":2958:2964   */\n      dup5\n        /* \"#utility.yul\":2914:2985   */\n      tag_126\n      jump\t// in\n    tag_198:\n        /* \"#utility.yul\":2770:2992   */\n      swap3\n      swap2\n      pop\n      pop\n      jump\t// out\n        /* \"#utility.yul\":2998:3097   */\n    tag_127:\n        /* \"#utility.yul\":3050:3056   */\n      0x00\n        /* \"#utility.yul\":3084:3089   */\n      dup2\n        /* \"#utility.yul\":3078:3090   */\n      mload\n        /* \"#utility.yul\":3068:3090   */\n      swap1\n      pop\n        /* \"#utility.yul\":2998:3097   */\n      swap2\n      swap1\n      pop\n      jump\t// out\n        /* \"#utility.yul\":3103:3272   */\n    tag_128:\n        /* \"#utility.yul\":3187:3198   */\n      0x00\n        /* \"#utility.yul\":3221:3227   */\n      dup3\n        /* \"#utility.yul\":3216:3219   */\n      dup3\n        /* \"#utility.yul\":3209:3228   */\n      mstore\n        /* \"#utility.yul\":3261:3265   */\n      0x20\n        /* \"#utility.yul\":3256:3259   */\n      dup3\n        /* \"#utility.yul\":3252:3266   */\n      add\n        /* \"#utility.yul\":3237:3266   */\n      swap1\n      pop\n        /* \"#utility.yul\":3103:3272   */\n      swap3\n      swap2\n      pop\n      pop\n      jump\t// out\n        /* \"#utility.yul\":3278:3585   */\n    tag_129:\n        /* \"#utility.yul\":3346:3347   */\n      0x00\n        /* \"#utility.yul\":3356:3469   */\n    tag_202:\n        /* \"#utility.yul\":3370:3376   */\n      dup4\n        /* \"#utility.yul\":3367:3368   */\n      dup2\n        /* \"#utility.yul\":3364:3377   */\n      lt\n        /* \"#utility.yul\":3356:3469   */\n      iszero\n      tag_204\n      jumpi\n        /* \"#utility.yul\":3455:3456   */\n      dup1\n        /* \"#utility.yul\":3450:3453   */\n      dup3\n        /* \"#utility.yul\":3446:3457   */\n      add\n        /* \"#utility.yul\":3440:3458   */\n      mload\n        /* \"#utility.yul\":3436:3437   */\n      dup2\n        /* \"#utility.yul\":3431:3434   */\n      dup5\n        /* \"#utility.yul\":3427:3438   */\n      add\n        /* \"#utility.yul\":3420:3459   */\n      mstore\n        /* \"#utility.yul\":3392:3394   */\n      0x20\n        /* \"#utility.yul\":3389:3390   */\n      dup2\n        /* \"#utility.yul\":3385:3395   */\n      add\n        /* \"#utility.yul\":3380:3395   */\n      swap1\n      pop\n        /* \"#utility.yul\":3356:3469   */\n      jump(tag_202)\n    tag_204:\n        /* \"#utility.yul\":3487:3493   */\n      dup4\n        /* \"#utility.yul\":3484:3485   */\n      dup2\n        /* \"#utility.yul\":3481:3494   */\n      gt\n        /* \"#utility.yul\":3478:3579   */\n      iszero\n      tag_205\n      jumpi\n        /* \"#utility.yul\":3567:3568   */\n      0x00\n        /* \"#utility.yul\":3558:3564   */\n      dup5\n        /* \"#utility.yul\":3553:3556   */\n      dup5\n        /* \"#utility.yul\":3549:3565   */\n      add\n        /* \"#utility.yul\":3542:3569   */\n      mstore\n        /* \"#utility.yul\":3478:3579   */\n    tag_205:\n        /* \"#utility.yul\":3327:3585   */\n      pop\n        /* \"#utility.yul\":3278:3585   */\n      pop\n      pop\n      pop\n      jump\t// out\n        /* \"#utility.yul\":3591:3693   */\n    tag_130:\n        /* \"#utility.yul\":3632:3638   */\n      0x00\n        /* \"#utility.yul\":3683:3685   */\n      0x1f\n        /* \"#utility.yul\":3679:3686   */\n      not\n        /* \"#utility.yul\":3674:3676   */\n      0x1f\n        /* \"#utility.yul\":3667:3672   */\n      dup4\n        /* \"#utility.yul\":3663:3677   */\n      add\n        /* \"#utility.yul\":3659:3687   */\n      and\n        /* \"#utility.yul\":3649:3687   */\n      swap1\n      pop\n        /* \"#utility.yul\":3591:3693   */\n      swap2\n      swap1\n      pop\n      jump\t// out\n        /* \"#utility.yul\":3699:4063   */\n    tag_131:\n        /* \"#utility.yul\":3787:3790   */\n      0x00\n        /* \"#utility.yul\":3815:3854   */\n      tag_208\n        /* \"#utility.yul\":3848:3853   */\n      dup3\n        /* \"#utility.yul\":3815:3854   */\n      tag_127\n      jump\t// in\n    tag_208:\n        /* \"#utility.yul\":3870:3941   */\n      tag_209\n        /* \"#utility.yul\":3934:3940   */\n      dup2\n        /* \"#utility.yul\":3929:3932   */\n      dup6\n        /* \"#utility.yul\":3870:3941   */\n      tag_128\n      jump\t// in\n    tag_209:\n        /* \"#utility.yul\":3863:3941   */\n      swap4\n      pop\n        /* \"#utility.yul\":3950:4002   */\n      tag_210\n        /* \"#utility.yul\":3995:4001   */\n      dup2\n        /* \"#utility.yul\":3990:3993   */\n      dup6\n        /* \"#utility.yul\":3983:3987   */\n      0x20\n        /* \"#utility.yul\":3976:3981   */\n      dup7\n        /* \"#utility.yul\":3972:3988   */\n      add\n        /* \"#utility.yul\":3950:4002   */\n      tag_129\n      jump\t// in\n    tag_210:\n        /* \"#utility.yul\":4027:4056   */\n      tag_211\n        /* \"#utility.yul\":4049:4055   */\n      dup2\n        /* \"#utility.yul\":4027:4056   */\n      tag_130\n      jump\t// in\n    tag_211:\n        /* \"#utility.yul\":4022:4025   */\n      dup5\n        /* \"#utility.yul\":4018:4057   */\n      add\n        /* \"#utility.yul\":4011:4057   */\n      swap2\n      pop\n        /* \"#utility.yul\":3791:4063   */\n      pop\n        /* \"#utility.yul\":3699:4063   */\n      swap3\n      swap2\n      pop\n      pop\n      jump\t// out\n        /* \"#utility.yul\":4069:4173   */\n    tag_132:\n        /* \"#utility.yul\":4114:4121   */\n      0x00\n        /* \"#utility.yul\":4143:4167   */\n      tag_213\n        /* \"#utility.yul\":4161:4166   */\n      dup3\n        /* \"#utility.yul\":4143:4167   */\n      tag_119\n      jump\t// in\n    tag_213:\n        /* \"#utility.yul\":4132:4167   */\n      swap1\n      pop\n        /* \"#utility.yul\":4069:4173   */\n      swap2\n      swap1\n      pop\n      jump\t// out\n        /* \"#utility.yul\":4179:4321   */\n    tag_133:\n        /* \"#utility.yul\":4282:4314   */\n      tag_215\n        /* \"#utility.yul\":4308:4313   */\n      dup2\n        /* \"#utility.yul\":4282:4314   */\n      tag_132\n      jump\t// in\n    tag_215:\n        /* \"#utility.yul\":4277:4280   */\n      dup3\n        /* \"#utility.yul\":4270:4315   */\n      mstore\n        /* \"#utility.yul\":4179:4321   */\n      pop\n      pop\n      jump\t// out\n        /* \"#utility.yul\":4327:5102   */\n    tag_40:\n        /* \"#utility.yul\":4562:4566   */\n      0x00\n        /* \"#utility.yul\":4600:4603   */\n      0xa0\n        /* \"#utility.yul\":4589:4598   */\n      dup3\n        /* \"#utility.yul\":4585:4604   */\n      add\n        /* \"#utility.yul\":4577:4604   */\n      swap1\n      pop\n        /* \"#utility.yul\":4650:4659   */\n      dup2\n        /* \"#utility.yul\":4644:4648   */\n      dup2\n        /* \"#utility.yul\":4640:4660   */\n      sub\n        /* \"#utility.yul\":4636:4637   */\n      0x00\n        /* \"#utility.yul\":4625:4634   */\n      dup4\n        /* \"#utility.yul\":4621:4638   */\n      add\n        /* \"#utility.yul\":4614:4661   */\n      mstore\n        /* \"#utility.yul\":4678:4756   */\n      tag_217\n        /* \"#utility.yul\":4751:4755   */\n      dup2\n        /* \"#utility.yul\":4742:4748   */\n      dup9\n        /* \"#utility.yul\":4678:4756   */\n      tag_131\n      jump\t// in\n    tag_217:\n        /* \"#utility.yul\":4670:4756   */\n      swap1\n      pop\n        /* \"#utility.yul\":4766:4838   */\n      tag_218\n        /* \"#utility.yul\":4834:4836   */\n      0x20\n        /* \"#utility.yul\":4823:4832   */\n      dup4\n        /* \"#utility.yul\":4819:4837   */\n      add\n        /* \"#utility.yul\":4810:4816   */\n      dup8\n        /* \"#utility.yul\":4766:4838   */\n      tag_125\n      jump\t// in\n    tag_218:\n        /* \"#utility.yul\":4848:4936   */\n      tag_219\n        /* \"#utility.yul\":4932:4934   */\n      0x40\n        /* \"#utility.yul\":4921:4930   */\n      dup4\n        /* \"#utility.yul\":4917:4935   */\n      add\n        /* \"#utility.yul\":4908:4914   */\n      dup7\n        /* \"#utility.yul\":4848:4936   */\n      tag_133\n      jump\t// in\n    tag_219:\n        /* \"#utility.yul\":4946:5012   */\n      tag_220\n        /* \"#utility.yul\":5008:5010   */\n      0x60\n        /* \"#utility.yul\":4997:5006   */\n      dup4\n        /* \"#utility.yul\":4993:5011   */\n      add\n        /* \"#utility.yul\":4984:4990   */\n      dup6\n        /* \"#utility.yul\":4946:5012   */\n      tag_124\n      jump\t// in\n    tag_220:\n        /* \"#utility.yul\":5022:5095   */\n      tag_221\n        /* \"#utility.yul\":5090:5093   */\n      0x80\n        /* \"#utility.yul\":5079:5088   */\n      dup4\n        /* \"#utility.yul\":5075:5094   */\n      add\n        /* \"#utility.yul\":5066:5072   */\n      dup5\n        /* \"#utility.yul\":5022:5095   */\n      tag_125\n      jump\t// in\n    tag_221:\n        /* \"#utility.yul\":4327:5102   */\n      swap7\n      swap6\n      pop\n      pop\n      pop\n      pop\n      pop\n      pop\n      jump\t// out\n        /* \"#utility.yul\":5108:5225   */\n    tag_134:\n        /* \"#utility.yul\":5217:5218   */\n      0x00\n        /* \"#utility.yul\":5214:5215   */\n      dup1\n        /* \"#utility.yul\":5207:5219   */\n      revert\n        /* \"#utility.yul\":5231:5348   */\n    tag_135:\n        /* \"#utility.yul\":5340:5341   */\n      0x00\n        /* \"#utility.yul\":5337:5338   */\n      dup1\n        /* \"#utility.yul\":5330:5342   */\n      revert\n        /* \"#utility.yul\":5354:5534   */\n    tag_136:\n        /* \"#utility.yul\":5402:5479   */\n      0x4e487b7100000000000000000000000000000000000000000000000000000000\n        /* \"#utility.yul\":5399:5400   */\n      0x00\n        /* \"#utility.yul\":5392:5480   */\n      mstore\n        /* \"#utility.yul\":5499:5503   */\n      0x41\n        /* \"#utility.yul\":5496:5497   */\n      0x04\n        /* \"#utility.yul\":5489:5504   */\n      mstore\n        /* \"#utility.yul\":5523:5527   */\n      0x24\n        /* \"#utility.yul\":5520:5521   */\n      0x00\n        /* \"#utility.yul\":5513:5528   */\n      revert\n        /* \"#utility.yul\":5540:5821   */\n    tag_137:\n        /* \"#utility.yul\":5623:5650   */\n      tag_226\n        /* \"#utility.yul\":5645:5649   */\n      dup3\n        /* \"#utility.yul\":5623:5650   */\n      tag_130\n      jump\t// in\n    tag_226:\n        /* \"#utility.yul\":5615:5621   */\n      dup2\n        /* \"#utility.yul\":5611:5651   */\n      add\n        /* \"#utility.yul\":5753:5759   */\n      dup2\n        /* \"#utility.yul\":5741:5751   */\n      dup2\n        /* \"#utility.yul\":5738:5760   */\n      lt\n        /* \"#utility.yul\":5717:5735   */\n      0xffffffffffffffff\n        /* \"#utility.yul\":5705:5715   */\n      dup3\n        /* \"#utility.yul\":5702:5736   */\n      gt\n        /* \"#utility.yul\":5699:5761   */\n      or\n        /* \"#utility.yul\":5696:5784   */\n      iszero\n      tag_227\n      jumpi\n        /* \"#utility.yul\":5764:5782   */\n      tag_228\n      tag_136\n      jump\t// in\n    tag_228:\n        /* \"#utility.yul\":5696:5784   */\n    tag_227:\n        /* \"#utility.yul\":5804:5814   */\n      dup1\n        /* \"#utility.yul\":5800:5802   */\n      0x40\n        /* \"#utility.yul\":5793:5815   */\n      mstore\n        /* \"#utility.yul\":5583:5821   */\n      pop\n        /* \"#utility.yul\":5540:5821   */\n      pop\n      pop\n      jump\t// out\n        /* \"#utility.yul\":5827:5956   */\n    tag_138:\n        /* \"#utility.yul\":5861:5867   */\n      0x00\n        /* \"#utility.yul\":5888:5908   */\n      tag_230\n      tag_113\n      jump\t// in\n    tag_230:\n        /* \"#utility.yul\":5878:5908   */\n      swap1\n      pop\n        /* \"#utility.yul\":5917:5950   */\n      tag_231\n        /* \"#utility.yul\":5945:5949   */\n      dup3\n        /* \"#utility.yul\":5937:5943   */\n      dup3\n        /* \"#utility.yul\":5917:5950   */\n      tag_137\n      jump\t// in\n    tag_231:\n        /* \"#utility.yul\":5827:5956   */\n      swap2\n      swap1\n      pop\n      jump\t// out\n        /* \"#utility.yul\":5962:6270   */\n    tag_139:\n        /* \"#utility.yul\":6024:6028   */\n      0x00\n        /* \"#utility.yul\":6114:6132   */\n      0xffffffffffffffff\n        /* \"#utility.yul\":6106:6112   */\n      dup3\n        /* \"#utility.yul\":6103:6133   */\n      gt\n        /* \"#utility.yul\":6100:6156   */\n      iszero\n      tag_233\n      jumpi\n        /* \"#utility.yul\":6136:6154   */\n      tag_234\n      tag_136\n      jump\t// in\n    tag_234:\n        /* \"#utility.yul\":6100:6156   */\n    tag_233:\n        /* \"#utility.yul\":6174:6203   */\n      tag_235\n        /* \"#utility.yul\":6196:6202   */\n      dup3\n        /* \"#utility.yul\":6174:6203   */\n      tag_130\n      jump\t// in\n    tag_235:\n        /* \"#utility.yul\":6166:6203   */\n      swap1\n      pop\n        /* \"#utility.yul\":6258:6262   */\n      0x20\n        /* \"#utility.yul\":6252:6256   */\n      dup2\n        /* \"#utility.yul\":6248:6263   */\n      add\n        /* \"#utility.yul\":6240:6263   */\n      swap1\n      pop\n        /* \"#utility.yul\":5962:6270   */\n      swap2\n      swap1\n      pop\n      jump\t// out\n        /* \"#utility.yul\":6276:6430   */\n    tag_140:\n        /* \"#utility.yul\":6360:6366   */\n      dup3\n        /* \"#utility.yul\":6355:6358   */\n      dup2\n        /* \"#utility.yul\":6350:6353   */\n      dup4\n        /* \"#utility.yul\":6337:6367   */\n      calldatacopy\n        /* \"#utility.yul\":6422:6423   */\n      0x00\n        /* \"#utility.yul\":6413:6419   */\n      dup4\n        /* \"#utility.yul\":6408:6411   */\n      dup4\n        /* \"#utility.yul\":6404:6420   */\n      add\n        /* \"#utility.yul\":6397:6424   */\n      mstore\n        /* \"#utility.yul\":6276:6430   */\n      pop\n      pop\n      pop\n      jump\t// out\n        /* \"#utility.yul\":6436:6848   */\n    tag_141:\n        /* \"#utility.yul\":6514:6519   */\n      0x00\n        /* \"#utility.yul\":6539:6605   */\n      tag_238\n        /* \"#utility.yul\":6555:6604   */\n      tag_239\n        /* \"#utility.yul\":6597:6603   */\n      dup5\n        /* \"#utility.yul\":6555:6604   */\n      tag_139\n      jump\t// in\n    tag_239:\n        /* \"#utility.yul\":6539:6605   */\n      tag_138\n      jump\t// in\n    tag_238:\n        /* \"#utility.yul\":6530:6605   */\n      swap1\n      pop\n        /* \"#utility.yul\":6628:6634   */\n      dup3\n        /* \"#utility.yul\":6621:6626   */\n      dup2\n        /* \"#utility.yul\":6614:6635   */\n      mstore\n        /* \"#utility.yul\":6666:6670   */\n      0x20\n        /* \"#utility.yul\":6659:6664   */\n      dup2\n        /* \"#utility.yul\":6655:6671   */\n      add\n        /* \"#utility.yul\":6704:6707   */\n      dup5\n        /* \"#utility.yul\":6695:6701   */\n      dup5\n        /* \"#utility.yul\":6690:6693   */\n      dup5\n        /* \"#utility.yul\":6686:6702   */\n      add\n        /* \"#utility.yul\":6683:6708   */\n      gt\n        /* \"#utility.yul\":6680:6792   */\n      iszero\n      tag_240\n      jumpi\n        /* \"#utility.yul\":6711:6790   */\n      tag_241\n      tag_135\n      jump\t// in\n    tag_241:\n        /* \"#utility.yul\":6680:6792   */\n    tag_240:\n        /* \"#utility.yul\":6801:6842   */\n      tag_242\n        /* \"#utility.yul\":6835:6841   */\n      dup5\n        /* \"#utility.yul\":6830:6833   */\n      dup3\n        /* \"#utility.yul\":6825:6828   */\n      dup6\n        /* \"#utility.yul\":6801:6842   */\n      tag_140\n      jump\t// in\n    tag_242:\n        /* \"#utility.yul\":6520:6848   */\n      pop\n        /* \"#utility.yul\":6436:6848   */\n      swap4\n      swap3\n      pop\n      pop\n      pop\n      jump\t// out\n        /* \"#utility.yul\":6868:7208   */\n    tag_142:\n        /* \"#utility.yul\":6924:6929   */\n      0x00\n        /* \"#utility.yul\":6973:6976   */\n      dup3\n        /* \"#utility.yul\":6966:6970   */\n      0x1f\n        /* \"#utility.yul\":6958:6964   */\n      dup4\n        /* \"#utility.yul\":6954:6971   */\n      add\n        /* \"#utility.yul\":6950:6977   */\n      slt\n        /* \"#utility.yul\":6940:7062   */\n      tag_244\n      jumpi\n        /* \"#utility.yul\":6981:7060   */\n      tag_245\n      tag_134\n      jump\t// in\n    tag_245:\n        /* \"#utility.yul\":6940:7062   */\n    tag_244:\n        /* \"#utility.yul\":7098:7104   */\n      dup2\n        /* \"#utility.yul\":7085:7105   */\n      calldataload\n        /* \"#utility.yul\":7123:7202   */\n      tag_246\n        /* \"#utility.yul\":7198:7201   */\n      dup5\n        /* \"#utility.yul\":7190:7196   */\n      dup3\n        /* \"#utility.yul\":7183:7187   */\n      0x20\n        /* \"#utility.yul\":7175:7181   */\n      dup7\n        /* \"#utility.yul\":7171:7188   */\n      add\n        /* \"#utility.yul\":7123:7202   */\n      tag_141\n      jump\t// in\n    tag_246:\n        /* \"#utility.yul\":7114:7202   */\n      swap2\n      pop\n        /* \"#utility.yul\":6930:7208   */\n      pop\n        /* \"#utility.yul\":6868:7208   */\n      swap3\n      swap2\n      pop\n      pop\n      jump\t// out\n        /* \"#utility.yul\":7214:7352   */\n    tag_143:\n        /* \"#utility.yul\":7295:7327   */\n      tag_248\n        /* \"#utility.yul\":7321:7326   */\n      dup2\n        /* \"#utility.yul\":7295:7327   */\n      tag_132\n      jump\t// in\n    tag_248:\n        /* \"#utility.yul\":7288:7293   */\n      dup2\n        /* \"#utility.yul\":7285:7328   */\n      eq\n        /* \"#utility.yul\":7275:7346   */\n      tag_249\n      jumpi\n        /* \"#utility.yul\":7342:7343   */\n      0x00\n        /* \"#utility.yul\":7339:7340   */\n      dup1\n        /* \"#utility.yul\":7332:7344   */\n      revert\n        /* \"#utility.yul\":7275:7346   */\n    tag_249:\n        /* \"#utility.yul\":7214:7352   */\n      pop\n      jump\t// out\n        /* \"#utility.yul\":7358:7513   */\n    tag_144:\n        /* \"#utility.yul\":7412:7417   */\n      0x00\n        /* \"#utility.yul\":7450:7456   */\n      dup2\n        /* \"#utility.yul\":7437:7457   */\n      calldataload\n        /* \"#utility.yul\":7428:7457   */\n      swap1\n      pop\n        /* \"#utility.yul\":7466:7507   */\n      tag_251\n        /* \"#utility.yul\":7501:7506   */\n      dup2\n        /* \"#utility.yul\":7466:7507   */\n      tag_143\n      jump\t// in\n    tag_251:\n        /* \"#utility.yul\":7358:7513   */\n      swap3\n      swap2\n      pop\n      pop\n      jump\t// out\n        /* \"#utility.yul\":7519:8334   */\n    tag_48:\n        /* \"#utility.yul\":7614:7620   */\n      0x00\n        /* \"#utility.yul\":7622:7628   */\n      dup1\n        /* \"#utility.yul\":7630:7636   */\n      0x00\n        /* \"#utility.yul\":7679:7681   */\n      0x60\n        /* \"#utility.yul\":7667:7676   */\n      dup5\n        /* \"#utility.yul\":7658:7665   */\n      dup7\n        /* \"#utility.yul\":7654:7677   */\n      sub\n        /* \"#utility.yul\":7650:7682   */\n      slt\n        /* \"#utility.yul\":7647:7766   */\n      iszero\n      tag_253\n      jumpi\n        /* \"#utility.yul\":7685:7764   */\n      tag_254\n      tag_114\n      jump\t// in\n    tag_254:\n        /* \"#utility.yul\":7647:7766   */\n    tag_253:\n        /* \"#utility.yul\":7833:7834   */\n      0x00\n        /* \"#utility.yul\":7822:7831   */\n      dup5\n        /* \"#utility.yul\":7818:7835   */\n      add\n        /* \"#utility.yul\":7805:7836   */\n      calldataload\n        /* \"#utility.yul\":7863:7881   */\n      0xffffffffffffffff\n        /* \"#utility.yul\":7855:7861   */\n      dup2\n        /* \"#utility.yul\":7852:7882   */\n      gt\n        /* \"#utility.yul\":7849:7966   */\n      iszero\n      tag_255\n      jumpi\n        /* \"#utility.yul\":7885:7964   */\n      tag_256\n      tag_115\n      jump\t// in\n    tag_256:\n        /* \"#utility.yul\":7849:7966   */\n    tag_255:\n        /* \"#utility.yul\":7990:8053   */\n      tag_257\n        /* \"#utility.yul\":8045:8052   */\n      dup7\n        /* \"#utility.yul\":8036:8042   */\n      dup3\n        /* \"#utility.yul\":8025:8034   */\n      dup8\n        /* \"#utility.yul\":8021:8043   */\n      add\n        /* \"#utility.yul\":7990:8053   */\n      tag_142\n      jump\t// in\n    tag_257:\n        /* \"#utility.yul\":7980:8053   */\n      swap4\n      pop\n        /* \"#utility.yul\":7776:8063   */\n      pop\n        /* \"#utility.yul\":8102:8104   */\n      0x20\n        /* \"#utility.yul\":8128:8181   */\n      tag_258\n        /* \"#utility.yul\":8173:8180   */\n      dup7\n        /* \"#utility.yul\":8164:8170   */\n      dup3\n        /* \"#utility.yul\":8153:8162   */\n      dup8\n        /* \"#utility.yul\":8149:8171   */\n      add\n        /* \"#utility.yul\":8128:8181   */\n      tag_118\n      jump\t// in\n    tag_258:\n        /* \"#utility.yul\":8118:8181   */\n      swap3\n      pop\n        /* \"#utility.yul\":8073:8191   */\n      pop\n        /* \"#utility.yul\":8230:8232   */\n      0x40\n        /* \"#utility.yul\":8256:8317   */\n      tag_259\n        /* \"#utility.yul\":8309:8316   */\n      dup7\n        /* \"#utility.yul\":8300:8306   */\n      dup3\n        /* \"#utility.yul\":8289:8298   */\n      dup8\n        /* \"#utility.yul\":8285:8307   */\n      add\n        /* \"#utility.yul\":8256:8317   */\n      tag_144\n      jump\t// in\n    tag_259:\n        /* \"#utility.yul\":8246:8317   */\n      swap2\n      pop\n        /* \"#utility.yul\":8201:8327   */\n      pop\n        /* \"#utility.yul\":7519:8334   */\n      swap3\n      pop\n      swap3\n      pop\n      swap3\n      jump\t// out\n        /* \"#utility.yul\":8340:8576   */\n    tag_145:\n        /* \"#utility.yul\":8480:8514   */\n      0x4f6e6c79207468652063616d706169676e206d616e616765722063616e206361\n        /* \"#utility.yul\":8476:8477   */\n      0x00\n        /* \"#utility.yul\":8468:8474   */\n      dup3\n        /* \"#utility.yul\":8464:8478   */\n      add\n        /* \"#utility.yul\":8457:8515   */\n      mstore\n        /* \"#utility.yul\":8549:8568   */\n      0x6c6c20746869732066756e6374696f6e2e000000000000000000000000000000\n        /* \"#utility.yul\":8544:8546   */\n      0x20\n        /* \"#utility.yul\":8536:8542   */\n      dup3\n        /* \"#utility.yul\":8532:8547   */\n      add\n        /* \"#utility.yul\":8525:8569   */\n      mstore\n        /* \"#utility.yul\":8340:8576   */\n      pop\n      jump\t// out\n        /* \"#utility.yul\":8582:8948   */\n    tag_146:\n        /* \"#utility.yul\":8724:8727   */\n      0x00\n        /* \"#utility.yul\":8745:8812   */\n      tag_262\n        /* \"#utility.yul\":8809:8811   */\n      0x31\n        /* \"#utility.yul\":8804:8807   */\n      dup4\n        /* \"#utility.yul\":8745:8812   */\n      tag_128\n      jump\t// in\n    tag_262:\n        /* \"#utility.yul\":8738:8812   */\n      swap2\n      pop\n        /* \"#utility.yul\":8821:8914   */\n      tag_263\n        /* \"#utility.yul\":8910:8913   */\n      dup3\n        /* \"#utility.yul\":8821:8914   */\n      tag_145\n      jump\t// in\n    tag_263:\n        /* \"#utility.yul\":8939:8941   */\n      0x40\n        /* \"#utility.yul\":8934:8937   */\n      dup3\n        /* \"#utility.yul\":8930:8942   */\n      add\n        /* \"#utility.yul\":8923:8942   */\n      swap1\n      pop\n        /* \"#utility.yul\":8582:8948   */\n      swap2\n      swap1\n      pop\n      jump\t// out\n        /* \"#utility.yul\":8954:9373   */\n    tag_63:\n        /* \"#utility.yul\":9120:9124   */\n      0x00\n        /* \"#utility.yul\":9158:9160   */\n      0x20\n        /* \"#utility.yul\":9147:9156   */\n      dup3\n        /* \"#utility.yul\":9143:9161   */\n      add\n        /* \"#utility.yul\":9135:9161   */\n      swap1\n      pop\n        /* \"#utility.yul\":9207:9216   */\n      dup2\n        /* \"#utility.yul\":9201:9205   */\n      dup2\n        /* \"#utility.yul\":9197:9217   */\n      sub\n        /* \"#utility.yul\":9193:9194   */\n      0x00\n        /* \"#utility.yul\":9182:9191   */\n      dup4\n        /* \"#utility.yul\":9178:9195   */\n      add\n        /* \"#utility.yul\":9171:9218   */\n      mstore\n        /* \"#utility.yul\":9235:9366   */\n      tag_265\n        /* \"#utility.yul\":9361:9365   */\n      dup2\n        /* \"#utility.yul\":9235:9366   */\n      tag_146\n      jump\t// in\n    tag_265:\n        /* \"#utility.yul\":9227:9366   */\n      swap1\n      pop\n        /* \"#utility.yul\":8954:9373   */\n      swap2\n      swap1\n      pop\n      jump\t// out\n        /* \"#utility.yul\":9379:9559   */\n    tag_147:\n        /* \"#utility.yul\":9427:9504   */\n      0x4e487b7100000000000000000000000000000000000000000000000000000000\n        /* \"#utility.yul\":9424:9425   */\n      0x00\n        /* \"#utility.yul\":9417:9505   */\n      mstore\n        /* \"#utility.yul\":9524:9528   */\n      0x12\n        /* \"#utility.yul\":9521:9522   */\n      0x04\n        /* \"#utility.yul\":9514:9529   */\n      mstore\n        /* \"#utility.yul\":9548:9552   */\n      0x24\n        /* \"#utility.yul\":9545:9546   */\n      0x00\n        /* \"#utility.yul\":9538:9553   */\n      revert\n        /* \"#utility.yul\":9565:9745   */\n    tag_148:\n        /* \"#utility.yul\":9613:9690   */\n      0x4e487b7100000000000000000000000000000000000000000000000000000000\n        /* \"#utility.yul\":9610:9611   */\n      0x00\n        /* \"#utility.yul\":9603:9691   */\n      mstore\n        /* \"#utility.yul\":9710:9714   */\n      0x11\n        /* \"#utility.yul\":9707:9708   */\n      0x04\n        /* \"#utility.yul\":9700:9715   */\n      mstore\n        /* \"#utility.yul\":9734:9738   */\n      0x24\n        /* \"#utility.yul\":9731:9732   */\n      0x00\n        /* \"#utility.yul\":9724:9739   */\n      revert\n        /* \"#utility.yul\":9751:9936   */\n    tag_66:\n        /* \"#utility.yul\":9791:9792   */\n      0x00\n        /* \"#utility.yul\":9808:9828   */\n      tag_269\n        /* \"#utility.yul\":9826:9827   */\n      dup3\n        /* \"#utility.yul\":9808:9828   */\n      tag_116\n      jump\t// in\n    tag_269:\n        /* \"#utility.yul\":9803:9828   */\n      swap2\n      pop\n        /* \"#utility.yul\":9842:9862   */\n      tag_270\n        /* \"#utility.yul\":9860:9861   */\n      dup4\n        /* \"#utility.yul\":9842:9862   */\n      tag_116\n      jump\t// in\n    tag_270:\n        /* \"#utility.yul\":9837:9862   */\n      swap3\n      pop\n        /* \"#utility.yul\":9881:9882   */\n      dup3\n        /* \"#utility.yul\":9871:9906   */\n      tag_271\n      jumpi\n        /* \"#utility.yul\":9886:9904   */\n      tag_272\n      tag_147\n      jump\t// in\n    tag_272:\n        /* \"#utility.yul\":9871:9906   */\n    tag_271:\n        /* \"#utility.yul\":9928:9929   */\n      dup3\n        /* \"#utility.yul\":9925:9926   */\n      dup3\n        /* \"#utility.yul\":9921:9930   */\n      div\n        /* \"#utility.yul\":9916:9930   */\n      swap1\n      pop\n        /* \"#utility.yul\":9751:9936   */\n      swap3\n      swap2\n      pop\n      pop\n      jump\t// out\n        /* \"#utility.yul\":9942:10189   */\n    tag_149:\n        /* \"#utility.yul\":10082:10116   */\n      0x546869732072657175657374206e65656473206d6f726520617070726f76616c\n        /* \"#utility.yul\":10078:10079   */\n      0x00\n        /* \"#utility.yul\":10070:10076   */\n      dup3\n        /* \"#utility.yul\":10066:10080   */\n      add\n        /* \"#utility.yul\":10059:10117   */\n      mstore\n        /* \"#utility.yul\":10151:10181   */\n      0x73206265666f72652069742063616e2062652066696e616c697a656400000000\n        /* \"#utility.yul\":10146:10148   */\n      0x20\n        /* \"#utility.yul\":10138:10144   */\n      dup3\n        /* \"#utility.yul\":10134:10149   */\n      add\n        /* \"#utility.yul\":10127:10182   */\n      mstore\n        /* \"#utility.yul\":9942:10189   */\n      pop\n      jump\t// out\n        /* \"#utility.yul\":10195:10561   */\n    tag_150:\n        /* \"#utility.yul\":10337:10340   */\n      0x00\n        /* \"#utility.yul\":10358:10425   */\n      tag_275\n        /* \"#utility.yul\":10422:10424   */\n      0x3c\n        /* \"#utility.yul\":10417:10420   */\n      dup4\n        /* \"#utility.yul\":10358:10425   */\n      tag_128\n      jump\t// in\n    tag_275:\n        /* \"#utility.yul\":10351:10425   */\n      swap2\n      pop\n        /* \"#utility.yul\":10434:10527   */\n      tag_276\n        /* \"#utility.yul\":10523:10526   */\n      dup3\n        /* \"#utility.yul\":10434:10527   */\n      tag_149\n      jump\t// in\n    tag_276:\n        /* \"#utility.yul\":10552:10554   */\n      0x40\n        /* \"#utility.yul\":10547:10550   */\n      dup3\n        /* \"#utility.yul\":10543:10555   */\n      add\n        /* \"#utility.yul\":10536:10555   */\n      swap1\n      pop\n        /* \"#utility.yul\":10195:10561   */\n      swap2\n      swap1\n      pop\n      jump\t// out\n        /* \"#utility.yul\":10567:10986   */\n    tag_69:\n        /* \"#utility.yul\":10733:10737   */\n      0x00\n        /* \"#utility.yul\":10771:10773   */\n      0x20\n        /* \"#utility.yul\":10760:10769   */\n      dup3\n        /* \"#utility.yul\":10756:10774   */\n      add\n        /* \"#utility.yul\":10748:10774   */\n      swap1\n      pop\n        /* \"#utility.yul\":10820:10829   */\n      dup2\n        /* \"#utility.yul\":10814:10818   */\n      dup2\n        /* \"#utility.yul\":10810:10830   */\n      sub\n        /* \"#utility.yul\":10806:10807   */\n      0x00\n        /* \"#utility.yul\":10795:10804   */\n      dup4\n        /* \"#utility.yul\":10791:10808   */\n      add\n        /* \"#utility.yul\":10784:10831   */\n      mstore\n        /* \"#utility.yul\":10848:10979   */\n      tag_278\n        /* \"#utility.yul\":10974:10978   */\n      dup2\n        /* \"#utility.yul\":10848:10979   */\n      tag_150\n      jump\t// in\n    tag_278:\n        /* \"#utility.yul\":10840:10979   */\n      swap1\n      pop\n        /* \"#utility.yul\":10567:10986   */\n      swap2\n      swap1\n      pop\n      jump\t// out\n        /* \"#utility.yul\":10992:11218   */\n    tag_151:\n        /* \"#utility.yul\":11132:11166   */\n      0x5468697320726571756573742068617320616c7265616479206265656e206669\n        /* \"#utility.yul\":11128:11129   */\n      0x00\n        /* \"#utility.yul\":11120:11126   */\n      dup3\n        /* \"#utility.yul\":11116:11130   */\n      add\n        /* \"#utility.yul\":11109:11167   */\n      mstore\n        /* \"#utility.yul\":11201:11210   */\n      0x6e616c697a656400000000000000000000000000000000000000000000000000\n        /* \"#utility.yul\":11196:11198   */\n      0x20\n        /* \"#utility.yul\":11188:11194   */\n      dup3\n        /* \"#utility.yul\":11184:11199   */\n      add\n        /* \"#utility.yul\":11177:11211   */\n      mstore\n        /* \"#utility.yul\":10992:11218   */\n      pop\n      jump\t// out\n        /* \"#utility.yul\":11224:11590   */\n    tag_152:\n        /* \"#utility.yul\":11366:11369   */\n      0x00\n        /* \"#utility.yul\":11387:11454   */\n      tag_281\n        /* \"#utility.yul\":11451:11453   */\n      0x27\n        /* \"#utility.yul\":11446:11449   */\n      dup4\n        /* \"#utility.yul\":11387:11454   */\n      tag_128\n      jump\t// in\n    tag_281:\n        /* \"#utility.yul\":11380:11454   */\n      swap2\n      pop\n        /* \"#utility.yul\":11463:11556   */\n      tag_282\n        /* \"#utility.yul\":11552:11555   */\n      dup3\n        /* \"#utility.yul\":11463:11556   */\n      tag_151\n      jump\t// in\n    tag_282:\n        /* \"#utility.yul\":11581:11583   */\n      0x40\n        /* \"#utility.yul\":11576:11579   */\n      dup3\n        /* \"#utility.yul\":11572:11584   */\n      add\n        /* \"#utility.yul\":11565:11584   */\n      swap1\n      pop\n        /* \"#utility.yul\":11224:11590   */\n      swap2\n      swap1\n      pop\n      jump\t// out\n        /* \"#utility.yul\":11596:12015   */\n    tag_72:\n        /* \"#utility.yul\":11762:11766   */\n      0x00\n        /* \"#utility.yul\":11800:11802   */\n      0x20\n        /* \"#utility.yul\":11789:11798   */\n      dup3\n        /* \"#utility.yul\":11785:11803   */\n      add\n        /* \"#utility.yul\":11777:11803   */\n      swap1\n      pop\n        /* \"#utility.yul\":11849:11858   */\n      dup2\n        /* \"#utility.yul\":11843:11847   */\n      dup2\n        /* \"#utility.yul\":11839:11859   */\n      sub\n        /* \"#utility.yul\":11835:11836   */\n      0x00\n        /* \"#utility.yul\":11824:11833   */\n      dup4\n        /* \"#utility.yul\":11820:11837   */\n      add\n        /* \"#utility.yul\":11813:11860   */\n      mstore\n        /* \"#utility.yul\":11877:12008   */\n      tag_284\n        /* \"#utility.yul\":12003:12007   */\n      dup2\n        /* \"#utility.yul\":11877:12008   */\n      tag_152\n      jump\t// in\n    tag_284:\n        /* \"#utility.yul\":11869:12008   */\n      swap1\n      pop\n        /* \"#utility.yul\":11596:12015   */\n      swap2\n      swap1\n      pop\n      jump\t// out\n        /* \"#utility.yul\":12021:12201   */\n    tag_153:\n        /* \"#utility.yul\":12069:12146   */\n      0x4e487b7100000000000000000000000000000000000000000000000000000000\n        /* \"#utility.yul\":12066:12067   */\n      0x00\n        /* \"#utility.yul\":12059:12147   */\n      mstore\n        /* \"#utility.yul\":12166:12170   */\n      0x22\n        /* \"#utility.yul\":12163:12164   */\n      0x04\n        /* \"#utility.yul\":12156:12171   */\n      mstore\n        /* \"#utility.yul\":12190:12194   */\n      0x24\n        /* \"#utility.yul\":12187:12188   */\n      0x00\n        /* \"#utility.yul\":12180:12195   */\n      revert\n        /* \"#utility.yul\":12207:12527   */\n    tag_77:\n        /* \"#utility.yul\":12251:12257   */\n      0x00\n        /* \"#utility.yul\":12288:12289   */\n      0x02\n        /* \"#utility.yul\":12282:12286   */\n      dup3\n        /* \"#utility.yul\":12278:12290   */\n      div\n        /* \"#utility.yul\":12268:12290   */\n      swap1\n      pop\n        /* \"#utility.yul\":12335:12336   */\n      0x01\n        /* \"#utility.yul\":12329:12333   */\n      dup3\n        /* \"#utility.yul\":12325:12337   */\n      and\n        /* \"#utility.yul\":12356:12374   */\n      dup1\n        /* \"#utility.yul\":12346:12427   */\n      tag_287\n      jumpi\n        /* \"#utility.yul\":12412:12416   */\n      0x7f\n        /* \"#utility.yul\":12404:12410   */\n      dup3\n        /* \"#utility.yul\":12400:12417   */\n      and\n        /* \"#utility.yul\":12390:12417   */\n      swap2\n      pop\n        /* \"#utility.yul\":12346:12427   */\n    tag_287:\n        /* \"#utility.yul\":12474:12476   */\n      0x20\n        /* \"#utility.yul\":12466:12472   */\n      dup3\n        /* \"#utility.yul\":12463:12477   */\n      lt\n        /* \"#utility.yul\":12443:12461   */\n      dup2\n        /* \"#utility.yul\":12440:12478   */\n      sub\n        /* \"#utility.yul\":12437:12521   */\n      tag_288\n      jumpi\n        /* \"#utility.yul\":12493:12511   */\n      tag_289\n      tag_153\n      jump\t// in\n    tag_289:\n        /* \"#utility.yul\":12437:12521   */\n    tag_288:\n        /* \"#utility.yul\":12258:12527   */\n      pop\n        /* \"#utility.yul\":12207:12527   */\n      swap2\n      swap1\n      pop\n      jump\t// out\n        /* \"#utility.yul\":12533:12766   */\n    tag_87:\n        /* \"#utility.yul\":12572:12575   */\n      0x00\n        /* \"#utility.yul\":12595:12619   */\n      tag_291\n        /* \"#utility.yul\":12613:12618   */\n      dup3\n        /* \"#utility.yul\":12595:12619   */\n      tag_116\n      jump\t// in\n    tag_291:\n        /* \"#utility.yul\":12586:12619   */\n      swap2\n      pop\n        /* \"#utility.yul\":12641:12707   */\n      0xffffffffffffffffffffffffffffffffffffffffffffffffffffffffffffffff\n        /* \"#utility.yul\":12634:12639   */\n      dup3\n        /* \"#utility.yul\":12631:12708   */\n      sub\n        /* \"#utility.yul\":12628:12731   */\n      tag_292\n      jumpi\n        /* \"#utility.yul\":12711:12729   */\n      tag_293\n      tag_148\n      jump\t// in\n    tag_293:\n        /* \"#utility.yul\":12628:12731   */\n    tag_292:\n        /* \"#utility.yul\":12758:12759   */\n      0x01\n        /* \"#utility.yul\":12751:12756   */\n      dup3\n        /* \"#utility.yul\":12747:12760   */\n      add\n        /* \"#utility.yul\":12740:12760   */\n      swap1\n      pop\n        /* \"#utility.yul\":12533:12766   */\n      swap2\n      swap1\n      pop\n      jump\t// out\n        /* \"#utility.yul\":12772:12994   */\n    tag_154:\n        /* \"#utility.yul\":12912:12946   */\n      0x41206d696e756d756d20636f6e747269627574696f6e20697320726571756972\n        /* \"#utility.yul\":12908:12909   */\n      0x00\n        /* \"#utility.yul\":12900:12906   */\n      dup3\n        /* \"#utility.yul\":12896:12910   */\n      add\n        /* \"#utility.yul\":12889:12947   */\n      mstore\n        /* \"#utility.yul\":12981:12986   */\n      0x65642e0000000000000000000000000000000000000000000000000000000000\n        /* \"#utility.yul\":12976:12978   */\n      0x20\n        /* \"#utility.yul\":12968:12974   */\n      dup3\n        /* \"#utility.yul\":12964:12979   */\n      add\n        /* \"#utility.yul\":12957:12987   */\n      mstore\n        /* \"#utility.yul\":12772:12994   */\n      pop\n      jump\t// out\n        /* \"#utility.yul\":13000:13366   */\n    tag_155:\n        /* \"#utility.yul\":13142:13145   */\n      0x00\n        /* \"#utility.yul\":13163:13230   */\n      tag_296\n        /* \"#utility.yul\":13227:13229   */\n      0x23\n        /* \"#utility.yul\":13222:13225   */\n      dup4\n        /* \"#utility.yul\":13163:13230   */\n      tag_128\n      jump\t// in\n    tag_296:\n        /* \"#utility.yul\":13156:13230   */\n      swap2\n      pop\n        /* \"#utility.yul\":13239:13332   */\n      tag_297\n        /* \"#utility.yul\":13328:13331   */\n      dup3\n        /* \"#utility.yul\":13239:13332   */\n      tag_154\n      jump\t// in\n    tag_297:\n        /* \"#utility.yul\":13357:13359   */\n      0x40\n        /* \"#utility.yul\":13352:13355   */\n      dup3\n        /* \"#utility.yul\":13348:13360   */\n      add\n        /* \"#utility.yul\":13341:13360   */\n      swap1\n      pop\n        /* \"#utility.yul\":13000:13366   */\n      swap2\n      swap1\n      pop\n      jump\t// out\n        /* \"#utility.yul\":13372:13791   */\n    tag_93:\n        /* \"#utility.yul\":13538:13542   */\n      0x00\n        /* \"#utility.yul\":13576:13578   */\n      0x20\n        /* \"#utility.yul\":13565:13574   */\n      dup3\n        /* \"#utility.yul\":13561:13579   */\n      add\n        /* \"#utility.yul\":13553:13579   */\n      swap1\n      pop\n        /* \"#utility.yul\":13625:13634   */\n      dup2\n        /* \"#utility.yul\":13619:13623   */\n      dup2\n        /* \"#utility.yul\":13615:13635   */\n      sub\n        /* \"#utility.yul\":13611:13612   */\n      0x00\n        /* \"#utility.yul\":13600:13609   */\n      dup4\n        /* \"#utility.yul\":13596:13613   */\n      add\n        /* \"#utility.yul\":13589:13636   */\n      mstore\n        /* \"#utility.yul\":13653:13784   */\n      tag_299\n        /* \"#utility.yul\":13779:13783   */\n      dup2\n        /* \"#utility.yul\":13653:13784   */\n      tag_155\n      jump\t// in\n    tag_299:\n        /* \"#utility.yul\":13645:13784   */\n      swap1\n      pop\n        /* \"#utility.yul\":13372:13791   */\n      swap2\n      swap1\n      pop\n      jump\t// out\n        /* \"#utility.yul\":13797:14040   */\n    tag_156:\n        /* \"#utility.yul\":13937:13971   */\n      0x4f6e6c7920636f6e7472696275746f72732063616e20617070726f7665206120\n        /* \"#utility.yul\":13933:13934   */\n      0x00\n        /* \"#utility.yul\":13925:13931   */\n      dup3\n        /* \"#utility.yul\":13921:13935   */\n      add\n        /* \"#utility.yul\":13914:13972   */\n      mstore\n        /* \"#utility.yul\":14006:14032   */\n      0x7370656369666963207061796d656e7420726571756573740000000000000000\n        /* \"#utility.yul\":14001:14003   */\n      0x20\n        /* \"#utility.yul\":13993:13999   */\n      dup3\n        /* \"#utility.yul\":13989:14004   */\n      add\n        /* \"#utility.yul\":13982:14033   */\n      mstore\n        /* \"#utility.yul\":13797:14040   */\n      pop\n      jump\t// out\n        /* \"#utility.yul\":14046:14412   */\n    tag_157:\n        /* \"#utility.yul\":14188:14191   */\n      0x00\n        /* \"#utility.yul\":14209:14276   */\n      tag_302\n        /* \"#utility.yul\":14273:14275   */\n      0x38\n        /* \"#utility.yul\":14268:14271   */\n      dup4\n        /* \"#utility.yul\":14209:14276   */\n      tag_128\n      jump\t// in\n    tag_302:\n        /* \"#utility.yul\":14202:14276   */\n      swap2\n      pop\n        /* \"#utility.yul\":14285:14378   */\n      tag_303\n        /* \"#utility.yul\":14374:14377   */\n      dup3\n        /* \"#utility.yul\":14285:14378   */\n      tag_156\n      jump\t// in\n    tag_303:\n        /* \"#utility.yul\":14403:14405   */\n      0x40\n        /* \"#utility.yul\":14398:14401   */\n      dup3\n        /* \"#utility.yul\":14394:14406   */\n      add\n        /* \"#utility.yul\":14387:14406   */\n      swap1\n      pop\n        /* \"#utility.yul\":14046:14412   */\n      swap2\n      swap1\n      pop\n      jump\t// out\n        /* \"#utility.yul\":14418:14837   */\n    tag_98:\n        /* \"#utility.yul\":14584:14588   */\n      0x00\n        /* \"#utility.yul\":14622:14624   */\n      0x20\n        /* \"#utility.yul\":14611:14620   */\n      dup3\n        /* \"#utility.yul\":14607:14625   */\n      add\n        /* \"#utility.yul\":14599:14625   */\n      swap1\n      pop\n        /* \"#utility.yul\":14671:14680   */\n      dup2\n        /* \"#utility.yul\":14665:14669   */\n      dup2\n        /* \"#utility.yul\":14661:14681   */\n      sub\n        /* \"#utility.yul\":14657:14658   */\n      0x00\n        /* \"#utility.yul\":14646:14655   */\n      dup4\n        /* \"#utility.yul\":14642:14659   */\n      add\n        /* \"#utility.yul\":14635:14682   */\n      mstore\n        /* \"#utility.yul\":14699:14830   */\n      tag_305\n        /* \"#utility.yul\":14825:14829   */\n      dup2\n        /* \"#utility.yul\":14699:14830   */\n      tag_157\n      jump\t// in\n    tag_305:\n        /* \"#utility.yul\":14691:14830   */\n      swap1\n      pop\n        /* \"#utility.yul\":14418:14837   */\n      swap2\n      swap1\n      pop\n      jump\t// out\n        /* \"#utility.yul\":14843:15076   */\n    tag_158:\n        /* \"#utility.yul\":14983:15017   */\n      0x596f75206861766520616c726561647920766f74656420746f20617070726f76\n        /* \"#utility.yul\":14979:14980   */\n      0x00\n        /* \"#utility.yul\":14971:14977   */\n      dup3\n        /* \"#utility.yul\":14967:14981   */\n      add\n        /* \"#utility.yul\":14960:15018   */\n      mstore\n        /* \"#utility.yul\":15052:15068   */\n      0x6520746869732072657175657374000000000000000000000000000000000000\n        /* \"#utility.yul\":15047:15049   */\n      0x20\n        /* \"#utility.yul\":15039:15045   */\n      dup3\n        /* \"#utility.yul\":15035:15050   */\n      add\n        /* \"#utility.yul\":15028:15069   */\n      mstore\n        /* \"#utility.yul\":14843:15076   */\n      pop\n      jump\t// out\n        /* \"#utility.yul\":15082:15448   */\n    tag_159:\n        /* \"#utility.yul\":15224:15227   */\n      0x00\n        /* \"#utility.yul\":15245:15312   */\n      tag_308\n        /* \"#utility.yul\":15309:15311   */\n      0x2e\n        /* \"#utility.yul\":15304:15307   */\n      dup4\n        /* \"#utility.yul\":15245:15312   */\n      tag_128\n      jump\t// in\n    tag_308:\n        /* \"#utility.yul\":15238:15312   */\n      swap2\n      pop\n        /* \"#utility.yul\":15321:15414   */\n      tag_309\n        /* \"#utility.yul\":15410:15413   */\n      dup3\n        /* \"#utility.yul\":15321:15414   */\n      tag_158\n      jump\t// in\n    tag_309:\n        /* \"#utility.yul\":15439:15441   */\n      0x40\n        /* \"#utility.yul\":15434:15437   */\n      dup3\n        /* \"#utility.yul\":15430:15442   */\n      add\n        /* \"#utility.yul\":15423:15442   */\n      swap1\n      pop\n        /* \"#utility.yul\":15082:15448   */\n      swap2\n      swap1\n      pop\n      jump\t// out\n        /* \"#utility.yul\":15454:15873   */\n    tag_101:\n        /* \"#utility.yul\":15620:15624   */\n      0x00\n        /* \"#utility.yul\":15658:15660   */\n      0x20\n        /* \"#utility.yul\":15647:15656   */\n      dup3\n        /* \"#utility.yul\":15643:15661   */\n      add\n        /* \"#utility.yul\":15635:15661   */\n      swap1\n      pop\n        /* \"#utility.yul\":15707:15716   */\n      dup2\n        /* \"#utility.yul\":15701:15705   */\n      dup2\n        /* \"#utility.yul\":15697:15717   */\n      sub\n        /* \"#utility.yul\":15693:15694   */\n      0x00\n        /* \"#utility.yul\":15682:15691   */\n      dup4\n        /* \"#utility.yul\":15678:15695   */\n      add\n        /* \"#utility.yul\":15671:15718   */\n      mstore\n        /* \"#utility.yul\":15735:15866   */\n      tag_311\n        /* \"#utility.yul\":15861:15865   */\n      dup2\n        /* \"#utility.yul\":15735:15866   */\n      tag_159\n      jump\t// in\n    tag_311:\n        /* \"#utility.yul\":15727:15866   */\n      swap1\n      pop\n        /* \"#utility.yul\":15454:15873   */\n      swap2\n      swap1\n      pop\n      jump\t// out\n\n    auxdata: 0xa2646970667358221220df4085568934858e6e14b87a1a04c3d7b8738483ea62d7de3c82d82604ea3dd164736f6c634300080d0033\n}\n","bytecode":{"linkReferences":{},"object":"60806040523480156200001157600080fd5b50604051620014813803806200148183398181016040528101906200003791906200012b565b806000806101000a81548173ffffffffffffffffffffffffffffffffffffffff021916908373ffffffffffffffffffffffffffffffffffffffff16021790555081600181905550505062000172565b600080fd5b6000819050919050565b620000a0816200008b565b8114620000ac57600080fd5b50565b600081519050620000c08162000095565b92915050565b600073ffffffffffffffffffffffffffffffffffffffff82169050919050565b6000620000f382620000c6565b9050919050565b6200010581620000e6565b81146200011157600080fd5b50565b6000815190506200012581620000fa565b92915050565b6000806040838503121562000145576200014462000086565b5b60006200015585828601620000af565b9250506020620001688582860162000114565b9150509250929050565b6112ff80620001826000396000f3fe6080604052600436106100915760003560e01c806382fde0931161005957806382fde093146101935780638a9cfd55146101be578063937e09b1146101e7578063d7bb99ba14610212578063d7d1bbdb1461021c57610091565b806303441006146100965780630a144391146100bf5780633410452a146100fc578063481c6a751461012757806381d12c5814610152575b600080fd5b3480156100a257600080fd5b506100bd60048036038101906100b89190610a00565b610245565b005b3480156100cb57600080fd5b506100e660048036038101906100e19190610a8b565b610420565b6040516100f39190610ad3565b60405180910390f35b34801561010857600080fd5b50610111610440565b60405161011e9190610afd565b60405180910390f35b34801561013357600080fd5b5061013c61044a565b6040516101499190610b27565b60405180910390f35b34801561015e57600080fd5b5061017960048036038101906101749190610a00565b61046e565b60405161018a959493929190610bfc565b60405180910390f35b34801561019f57600080fd5b506101a8610559565b6040516101b59190610afd565b60405180910390f35b3480156101ca57600080fd5b506101e560048036038101906101e09190610db7565b61055f565b005b3480156101f357600080fd5b506101fc6106ac565b6040516102099190610afd565b60405180910390f35b61021a6106b2565b005b34801561022857600080fd5b50610243600480360381019061023e9190610a00565b610769565b005b60008054906101000a900473ffffffffffffffffffffffffffffffffffffffff1673ffffffffffffffffffffffffffffffffffffffff163373ffffffffffffffffffffffffffffffffffffffff16146102d3576040517f08c379a00000000000000000000000000000000000000000000000000000000081526004016102ca90610e98565b60405180910390fd5b600060056000838152602001908152602001600020905060026003546102f99190610f16565b81600301541161033e576040517f08c379a000000000000000000000000000000000000000000000000000000000815260040161033590610fb9565b60405180910390fd5b8060020160149054906101000a900460ff1615610390576040517f08c379a00000000000000000000000000000000000000000000000000000000081526004016103879061104b565b60405180910390fd5b8060020160009054906101000a900473ffffffffffffffffffffffffffffffffffffffff1673ffffffffffffffffffffffffffffffffffffffff166108fc82600101549081150290604051600060405180830381858888f193505050501580156103fe573d6000803e3d6000fd5b5060018160020160146101000a81548160ff0219169083151502179055505050565b60026020528060005260406000206000915054906101000a900460ff1681565b6000600454905090565b60008054906101000a900473ffffffffffffffffffffffffffffffffffffffff1681565b60056020528060005260406000206000915090508060000180546104919061109a565b80601f01602080910402602001604051908101604052809291908181526020018280546104bd9061109a565b801561050a5780601f106104df5761010080835404028352916020019161050a565b820191906000526020600020905b8154815290600101906020018083116104ed57829003601f168201915b5050505050908060010154908060020160009054906101000a900473ffffffffffffffffffffffffffffffffffffffff16908060020160149054906101000a900460ff16908060030154905085565b60035481565b60008054906101000a900473ffffffffffffffffffffffffffffffffffffffff1673ffffffffffffffffffffffffffffffffffffffff163373ffffffffffffffffffffffffffffffffffffffff16146105ed576040517f08c379a00000000000000000000000000000000000000000000000000000000081526004016105e490610e98565b60405180910390fd5b60006005600060046000815480929190610606906110cb565b919050558152602001908152602001600020905083816000019080519060200190610632929190610913565b50828160010181905550818160020160006101000a81548173ffffffffffffffffffffffffffffffffffffffff021916908373ffffffffffffffffffffffffffffffffffffffff16021790555060008160020160146101000a81548160ff0219169083151502179055506000816003018190555050505050565b60015481565b6001543410156106f7576040517f08c379a00000000000000000000000000000000000000000000000000000000081526004016106ee90611185565b60405180910390fd5b6001600260003373ffffffffffffffffffffffffffffffffffffffff1673ffffffffffffffffffffffffffffffffffffffff16815260200190815260200160002060006101000a81548160ff02191690831515021790555060036000815480929190610762906110cb565b9190505550565b6000600560008381526020019081526020016000209050600260003373ffffffffffffffffffffffffffffffffffffffff1673ffffffffffffffffffffffffffffffffffffffff16815260200190815260200160002060009054906101000a900460ff1661080c576040517f08c379a000000000000000000000000000000000000000000000000000000000815260040161080390611217565b60405180910390fd5b8060040160003373ffffffffffffffffffffffffffffffffffffffff1673ffffffffffffffffffffffffffffffffffffffff16815260200190815260200160002060009054906101000a900460ff161561089b576040517f08c379a0000000000000000000000000000000000000000000000000000000008152600401610892906112a9565b60405180910390fd5b60018160040160003373ffffffffffffffffffffffffffffffffffffffff1673ffffffffffffffffffffffffffffffffffffffff16815260200190815260200160002060006101000a81548160ff02191690831515021790555080600301600081548092919061090a906110cb565b91905055505050565b82805461091f9061109a565b90600052602060002090601f0160209004810192826109415760008555610988565b82601f1061095a57805160ff1916838001178555610988565b82800160010185558215610988579182015b8281111561098757825182559160200191906001019061096c565b5b5090506109959190610999565b5090565b5b808211156109b257600081600090555060010161099a565b5090565b6000604051905090565b600080fd5b600080fd5b6000819050919050565b6109dd816109ca565b81146109e857600080fd5b50565b6000813590506109fa816109d4565b92915050565b600060208284031215610a1657610a156109c0565b5b6000610a24848285016109eb565b91505092915050565b600073ffffffffffffffffffffffffffffffffffffffff82169050919050565b6000610a5882610a2d565b9050919050565b610a6881610a4d565b8114610a7357600080fd5b50565b600081359050610a8581610a5f565b92915050565b600060208284031215610aa157610aa06109c0565b5b6000610aaf84828501610a76565b91505092915050565b60008115159050919050565b610acd81610ab8565b82525050565b6000602082019050610ae86000830184610ac4565b92915050565b610af7816109ca565b82525050565b6000602082019050610b126000830184610aee565b92915050565b610b2181610a4d565b82525050565b6000602082019050610b3c6000830184610b18565b92915050565b600081519050919050565b600082825260208201905092915050565b60005b83811015610b7c578082015181840152602081019050610b61565b83811115610b8b576000848401525b50505050565b6000601f19601f8301169050919050565b6000610bad82610b42565b610bb78185610b4d565b9350610bc7818560208601610b5e565b610bd081610b91565b840191505092915050565b6000610be682610a2d565b9050919050565b610bf681610bdb565b82525050565b600060a0820190508181036000830152610c168188610ba2565b9050610c256020830187610aee565b610c326040830186610bed565b610c3f6060830185610ac4565b610c4c6080830184610aee565b9695505050505050565b600080fd5b600080fd5b7f4e487b7100000000000000000000000000000000000000000000000000000000600052604160045260246000fd5b610c9882610b91565b810181811067ffffffffffffffff82111715610cb757610cb6610c60565b5b80604052505050565b6000610cca6109b6565b9050610cd68282610c8f565b919050565b600067ffffffffffffffff821115610cf657610cf5610c60565b5b610cff82610b91565b9050602081019050919050565b82818337600083830152505050565b6000610d2e610d2984610cdb565b610cc0565b905082815260208101848484011115610d4a57610d49610c5b565b5b610d55848285610d0c565b509392505050565b600082601f830112610d7257610d71610c56565b5b8135610d82848260208601610d1b565b91505092915050565b610d9481610bdb565b8114610d9f57600080fd5b50565b600081359050610db181610d8b565b92915050565b600080600060608486031215610dd057610dcf6109c0565b5b600084013567ffffffffffffffff811115610dee57610ded6109c5565b5b610dfa86828701610d5d565b9350506020610e0b868287016109eb565b9250506040610e1c86828701610da2565b9150509250925092565b7f4f6e6c79207468652063616d706169676e206d616e616765722063616e20636160008201527f6c6c20746869732066756e6374696f6e2e000000000000000000000000000000602082015250565b6000610e82603183610b4d565b9150610e8d82610e26565b604082019050919050565b60006020820190508181036000830152610eb181610e75565b9050919050565b7f4e487b7100000000000000000000000000000000000000000000000000000000600052601260045260246000fd5b7f4e487b7100000000000000000000000000000000000000000000000000000000600052601160045260246000fd5b6000610f21826109ca565b9150610f2c836109ca565b925082610f3c57610f3b610eb8565b5b828204905092915050565b7f546869732072657175657374206e65656473206d6f726520617070726f76616c60008201527f73206265666f72652069742063616e2062652066696e616c697a656400000000602082015250565b6000610fa3603c83610b4d565b9150610fae82610f47565b604082019050919050565b60006020820190508181036000830152610fd281610f96565b9050919050565b7f5468697320726571756573742068617320616c7265616479206265656e20666960008201527f6e616c697a656400000000000000000000000000000000000000000000000000602082015250565b6000611035602783610b4d565b915061104082610fd9565b604082019050919050565b6000602082019050818103600083015261106481611028565b9050919050565b7f4e487b7100000000000000000000000000000000000000000000000000000000600052602260045260246000fd5b600060028204905060018216806110b257607f821691505b6020821081036110c5576110c461106b565b5b50919050565b60006110d6826109ca565b91507fffffffffffffffffffffffffffffffffffffffffffffffffffffffffffffffff820361110857611107610ee7565b5b600182019050919050565b7f41206d696e756d756d20636f6e747269627574696f6e2069732072657175697260008201527f65642e0000000000000000000000000000000000000000000000000000000000602082015250565b600061116f602383610b4d565b915061117a82611113565b604082019050919050565b6000602082019050818103600083015261119e81611162565b9050919050565b7f4f6e6c7920636f6e7472696275746f72732063616e20617070726f766520612060008201527f7370656369666963207061796d656e7420726571756573740000000000000000602082015250565b6000611201603883610b4d565b915061120c826111a5565b604082019050919050565b60006020820190508181036000830152611230816111f4565b9050919050565b7f596f75206861766520616c726561647920766f74656420746f20617070726f7660008201527f6520746869732072657175657374000000000000000000000000000000000000602082015250565b6000611293602e83610b4d565b915061129e82611237565b604082019050919050565b600060208201905081810360008301526112c281611286565b905091905056fea2646970667358221220df4085568934858e6e14b87a1a04c3d7b8738483ea62d7de3c82d82604ea3dd164736f6c634300080d0033","opcodes":"PUSH1 0x80 PUSH1 0x40 MSTORE CALLVALUE DUP1 ISZERO PUSH3 0x11 JUMPI PUSH1 0x0 DUP1 REVERT JUMPDEST POP PUSH1 0x40 MLOAD PUSH3 0x1481 CODESIZE SUB DUP1 PUSH3 0x1481 DUP4 CODECOPY DUP2 DUP2 ADD PUSH1 0x40 MSTORE DUP2 ADD SWAP1 PUSH3 0x37 SWAP2 SWAP1 PUSH3 0x12B JUMP JUMPDEST DUP1 PUSH1 0x0 DUP1 PUSH2 0x100 EXP DUP2 SLOAD DUP2 PUSH20 0xFFFFFFFFFFFFFFFFFFFFFFFFFFFFFFFFFFFFFFFF MUL NOT AND SWAP1 DUP4 PUSH20 0xFFFFFFFFFFFFFFFFFFFFFFFFFFFFFFFFFFFFFFFF AND MUL OR SWAP1 SSTORE POP DUP2 PUSH1 0x1 DUP2 SWAP1 SSTORE POP POP POP PUSH3 0x172 JUMP JUMPDEST PUSH1 0x0 DUP1 REVERT JUMPDEST PUSH1 0x0 DUP2 SWAP1 POP SWAP2 SWAP1 POP JUMP JUMPDEST PUSH3 0xA0 DUP2 PUSH3 0x8B JUMP JUMPDEST DUP2 EQ PUSH3 0xAC JUMPI PUSH1 0x0 DUP1 REVERT JUMPDEST POP JUMP JUMPDEST PUSH1 0x0 DUP2 MLOAD SWAP1 POP PUSH3 0xC0 DUP2 PUSH3 0x95 JUMP JUMPDEST SWAP3 SWAP2 POP POP JUMP JUMPDEST PUSH1 0x0 PUSH20 0xFFFFFFFFFFFFFFFFFFFFFFFFFFFFFFFFFFFFFFFF DUP3 AND SWAP1 POP SWAP2 SWAP1 POP JUMP JUMPDEST PUSH1 0x0 PUSH3 0xF3 DUP3 PUSH3 0xC6 JUMP JUMPDEST SWAP1 POP SWAP2 SWAP1 POP JUMP JUMPDEST PUSH3 0x105 DUP2 PUSH3 0xE6 JUMP JUMPDEST DUP2 EQ PUSH3 0x111 JUMPI PUSH1 0x0 DUP1 REVERT JUMPDEST POP JUMP JUMPDEST PUSH1 0x0 DUP2 MLOAD SWAP1 POP PUSH3 0x125 DUP2 PUSH3 0xFA JUMP JUMPDEST SWAP3 SWAP2 POP POP JUMP JUMPDEST PUSH1 0x0 DUP1 PUSH1 0x40 DUP4 DUP6 SUB SLT ISZERO PUSH3 0x145 JUMPI PUSH3 0x144 PUSH3 0x86 JUMP JUMPDEST JUMPDEST PUSH1 0x0 PUSH3 0x155 DUP6 DUP3 DUP7 ADD PUSH3 0xAF JUMP JUMPDEST SWAP3 POP POP PUSH1 0x20 PUSH3 0x168 DUP6 DUP3 DUP7 ADD PUSH3 0x114 JUMP JUMPDEST SWAP2 POP POP SWAP3 POP SWAP3 SWAP1 POP JUMP JUMPDEST PUSH2 0x12FF DUP1 PUSH3 0x182 PUSH1 0x0 CODECOPY PUSH1 0x0 RETURN INVALID PUSH1 0x80 PUSH1 0x40 MSTORE PUSH1 0x4 CALLDATASIZE LT PUSH2 0x91 JUMPI PUSH1 0x0 CALLDATALOAD PUSH1 0xE0 SHR DUP1 PUSH4 0x82FDE093 GT PUSH2 0x59 JUMPI DUP1 PUSH4 0x82FDE093 EQ PUSH2 0x193 JUMPI DUP1 PUSH4 0x8A9CFD55 EQ PUSH2 0x1BE JUMPI DUP1 PUSH4 0x937E09B1 EQ PUSH2 0x1E7 JUMPI DUP1 PUSH4 0xD7BB99BA EQ PUSH2 0x212 JUMPI DUP1 PUSH4 0xD7D1BBDB EQ PUSH2 0x21C JUMPI PUSH2 0x91 JUMP JUMPDEST DUP1 PUSH4 0x3441006 EQ PUSH2 0x96 JUMPI DUP1 PUSH4 0xA144391 EQ PUSH2 0xBF JUMPI DUP1 PUSH4 0x3410452A EQ PUSH2 0xFC JUMPI DUP1 PUSH4 0x481C6A75 EQ PUSH2 0x127 JUMPI DUP1 PUSH4 0x81D12C58 EQ PUSH2 0x152 JUMPI JUMPDEST PUSH1 0x0 DUP1 REVERT JUMPDEST CALLVALUE DUP1 ISZERO PUSH2 0xA2 JUMPI PUSH1 0x0 DUP1 REVERT JUMPDEST POP PUSH2 0xBD PUSH1 0x4 DUP1 CALLDATASIZE SUB DUP2 ADD SWAP1 PUSH2 0xB8 SWAP2 SWAP1 PUSH2 0xA00 JUMP JUMPDEST PUSH2 0x245 JUMP JUMPDEST STOP JUMPDEST CALLVALUE DUP1 ISZERO PUSH2 0xCB JUMPI PUSH1 0x0 DUP1 REVERT JUMPDEST POP PUSH2 0xE6 PUSH1 0x4 DUP1 CALLDATASIZE SUB DUP2 ADD SWAP1 PUSH2 0xE1 SWAP2 SWAP1 PUSH2 0xA8B JUMP JUMPDEST PUSH2 0x420 JUMP JUMPDEST PUSH1 0x40 MLOAD PUSH2 0xF3 SWAP2 SWAP1 PUSH2 0xAD3 JUMP JUMPDEST PUSH1 0x40 MLOAD DUP1 SWAP2 SUB SWAP1 RETURN JUMPDEST CALLVALUE DUP1 ISZERO PUSH2 0x108 JUMPI PUSH1 0x0 DUP1 REVERT JUMPDEST POP PUSH2 0x111 PUSH2 0x440 JUMP JUMPDEST PUSH1 0x40 MLOAD PUSH2 0x11E SWAP2 SWAP1 PUSH2 0xAFD JUMP JUMPDEST PUSH1 0x40 MLOAD DUP1 SWAP2 SUB SWAP1 RETURN JUMPDEST CALLVALUE DUP1 ISZERO PUSH2 0x133 JUMPI PUSH1 0x0 DUP1 REVERT JUMPDEST POP PUSH2 0x13C PUSH2 0x44A JUMP JUMPDEST PUSH1 0x40 MLOAD PUSH2 0x149 SWAP2 SWAP1 PUSH2 0xB27 JUMP JUMPDEST PUSH1 0x40 MLOAD DUP1 SWAP2 SUB SWAP1 RETURN JUMPDEST CALLVALUE DUP1 ISZERO PUSH2 0x15E JUMPI PUSH1 0x0 DUP1 REVERT JUMPDEST POP PUSH2 0x179 PUSH1 0x4 DUP1 CALLDATASIZE SUB DUP2 ADD SWAP1 PUSH2 0x174 SWAP2 SWAP1 PUSH2 0xA00 JUMP JUMPDEST PUSH2 0x46E JUMP JUMPDEST PUSH1 0x40 MLOAD PUSH2 0x18A SWAP6 SWAP5 SWAP4 SWAP3 SWAP2 SWAP1 PUSH2 0xBFC JUMP JUMPDEST PUSH1 0x40 MLOAD DUP1 SWAP2 SUB SWAP1 RETURN JUMPDEST CALLVALUE DUP1 ISZERO PUSH2 0x19F JUMPI PUSH1 0x0 DUP1 REVERT JUMPDEST POP PUSH2 0x1A8 PUSH2 0x559 JUMP JUMPDEST PUSH1 0x40 MLOAD PUSH2 0x1B5 SWAP2 SWAP1 PUSH2 0xAFD JUMP JUMPDEST PUSH1 0x40 MLOAD DUP1 SWAP2 SUB SWAP1 RETURN JUMPDEST CALLVALUE DUP1 ISZERO PUSH2 0x1CA JUMPI PUSH1 0x0 DUP1 REVERT JUMPDEST POP PUSH2 0x1E5 PUSH1 0x4 DUP1 CALLDATASIZE SUB DUP2 ADD SWAP1 PUSH2 0x1E0 SWAP2 SWAP1 PUSH2 0xDB7 JUMP JUMPDEST PUSH2 0x55F JUMP JUMPDEST STOP JUMPDEST CALLVALUE DUP1 ISZERO PUSH2 0x1F3 JUMPI PUSH1 0x0 DUP1 REVERT JUMPDEST POP PUSH2 0x1FC PUSH2 0x6AC JUMP JUMPDEST PUSH1 0x40 MLOAD PUSH2 0x209 SWAP2 SWAP1 PUSH2 0xAFD JUMP JUMPDEST PUSH1 0x40 MLOAD DUP1 SWAP2 SUB SWAP1 RETURN JUMPDEST PUSH2 0x21A PUSH2 0x6B2 JUMP JUMPDEST STOP JUMPDEST CALLVALUE DUP1 ISZERO PUSH2 0x228 JUMPI PUSH1 0x0 DUP1 REVERT JUMPDEST POP PUSH2 0x243 PUSH1 0x4 DUP1 CALLDATASIZE SUB DUP2 ADD SWAP1 PUSH2 0x23E SWAP2 SWAP1 PUSH2 0xA00 JUMP JUMPDEST PUSH2 0x769 JUMP JUMPDEST STOP JUMPDEST PUSH1 0x0 DUP1 SLOAD SWAP1 PUSH2 0x100 EXP SWAP1 DIV PUSH20 0xFFFFFFFFFFFFFFFFFFFFFFFFFFFFFFFFFFFFFFFF AND PUSH20 0xFFFFFFFFFFFFFFFFFFFFFFFFFFFFFFFFFFFFFFFF AND CALLER PUSH20 0xFFFFFFFFFFFFFFFFFFFFFFFFFFFFFFFFFFFFFFFF AND EQ PUSH2 0x2D3 JUMPI PUSH1 0x40 MLOAD PUSH32 0x8C379A000000000000000000000000000000000000000000000000000000000 DUP2 MSTORE PUSH1 0x4 ADD PUSH2 0x2CA SWAP1 PUSH2 0xE98 JUMP JUMPDEST PUSH1 0x40 MLOAD DUP1 SWAP2 SUB SWAP1 REVERT JUMPDEST PUSH1 0x0 PUSH1 0x5 PUSH1 0x0 DUP4 DUP2 MSTORE PUSH1 0x20 ADD SWAP1 DUP2 MSTORE PUSH1 0x20 ADD PUSH1 0x0 KECCAK256 SWAP1 POP PUSH1 0x2 PUSH1 0x3 SLOAD PUSH2 0x2F9 SWAP2 SWAP1 PUSH2 0xF16 JUMP JUMPDEST DUP2 PUSH1 0x3 ADD SLOAD GT PUSH2 0x33E JUMPI PUSH1 0x40 MLOAD PUSH32 0x8C379A000000000000000000000000000000000000000000000000000000000 DUP2 MSTORE PUSH1 0x4 ADD PUSH2 0x335 SWAP1 PUSH2 0xFB9 JUMP JUMPDEST PUSH1 0x40 MLOAD DUP1 SWAP2 SUB SWAP1 REVERT JUMPDEST DUP1 PUSH1 0x2 ADD PUSH1 0x14 SWAP1 SLOAD SWAP1 PUSH2 0x100 EXP SWAP1 DIV PUSH1 0xFF AND ISZERO PUSH2 0x390 JUMPI PUSH1 0x40 MLOAD PUSH32 0x8C379A000000000000000000000000000000000000000000000000000000000 DUP2 MSTORE PUSH1 0x4 ADD PUSH2 0x387 SWAP1 PUSH2 0x104B JUMP JUMPDEST PUSH1 0x40 MLOAD DUP1 SWAP2 SUB SWAP1 REVERT JUMPDEST DUP1 PUSH1 0x2 ADD PUSH1 0x0 SWAP1 SLOAD SWAP1 PUSH2 0x100 EXP SWAP1 DIV PUSH20 0xFFFFFFFFFFFFFFFFFFFFFFFFFFFFFFFFFFFFFFFF AND PUSH20 0xFFFFFFFFFFFFFFFFFFFFFFFFFFFFFFFFFFFFFFFF AND PUSH2 0x8FC DUP3 PUSH1 0x1 ADD SLOAD SWAP1 DUP2 ISZERO MUL SWAP1 PUSH1 0x40 MLOAD PUSH1 0x0 PUSH1 0x40 MLOAD DUP1 DUP4 SUB DUP2 DUP6 DUP9 DUP9 CALL SWAP4 POP POP POP POP ISZERO DUP1 ISZERO PUSH2 0x3FE JUMPI RETURNDATASIZE PUSH1 0x0 DUP1 RETURNDATACOPY RETURNDATASIZE PUSH1 0x0 REVERT JUMPDEST POP PUSH1 0x1 DUP2 PUSH1 0x2 ADD PUSH1 0x14 PUSH2 0x100 EXP DUP2 SLOAD DUP2 PUSH1 0xFF MUL NOT AND SWAP1 DUP4 ISZERO ISZERO MUL OR SWAP1 SSTORE POP POP POP JUMP JUMPDEST PUSH1 0x2 PUSH1 0x20 MSTORE DUP1 PUSH1 0x0 MSTORE PUSH1 0x40 PUSH1 0x0 KECCAK256 PUSH1 0x0 SWAP2 POP SLOAD SWAP1 PUSH2 0x100 EXP SWAP1 DIV PUSH1 0xFF AND DUP2 JUMP JUMPDEST PUSH1 0x0 PUSH1 0x4 SLOAD SWAP1 POP SWAP1 JUMP JUMPDEST PUSH1 0x0 DUP1 SLOAD SWAP1 PUSH2 0x100 EXP SWAP1 DIV PUSH20 0xFFFFFFFFFFFFFFFFFFFFFFFFFFFFFFFFFFFFFFFF AND DUP2 JUMP JUMPDEST PUSH1 0x5 PUSH1 0x20 MSTORE DUP1 PUSH1 0x0 MSTORE PUSH1 0x40 PUSH1 0x0 KECCAK256 PUSH1 0x0 SWAP2 POP SWAP1 POP DUP1 PUSH1 0x0 ADD DUP1 SLOAD PUSH2 0x491 SWAP1 PUSH2 0x109A JUMP JUMPDEST DUP1 PUSH1 0x1F ADD PUSH1 0x20 DUP1 SWAP2 DIV MUL PUSH1 0x20 ADD PUSH1 0x40 MLOAD SWAP1 DUP2 ADD PUSH1 0x40 MSTORE DUP1 SWAP3 SWAP2 SWAP1 DUP2 DUP2 MSTORE PUSH1 0x20 ADD DUP3 DUP1 SLOAD PUSH2 0x4BD SWAP1 PUSH2 0x109A JUMP JUMPDEST DUP1 ISZERO PUSH2 0x50A JUMPI DUP1 PUSH1 0x1F LT PUSH2 0x4DF JUMPI PUSH2 0x100 DUP1 DUP4 SLOAD DIV MUL DUP4 MSTORE SWAP2 PUSH1 0x20 ADD SWAP2 PUSH2 0x50A JUMP JUMPDEST DUP3 ADD SWAP2 SWAP1 PUSH1 0x0 MSTORE PUSH1 0x20 PUSH1 0x0 KECCAK256 SWAP1 JUMPDEST DUP2 SLOAD DUP2 MSTORE SWAP1 PUSH1 0x1 ADD SWAP1 PUSH1 0x20 ADD DUP1 DUP4 GT PUSH2 0x4ED JUMPI DUP3 SWAP1 SUB PUSH1 0x1F AND DUP3 ADD SWAP2 JUMPDEST POP POP POP POP POP SWAP1 DUP1 PUSH1 0x1 ADD SLOAD SWAP1 DUP1 PUSH1 0x2 ADD PUSH1 0x0 SWAP1 SLOAD SWAP1 PUSH2 0x100 EXP SWAP1 DIV PUSH20 0xFFFFFFFFFFFFFFFFFFFFFFFFFFFFFFFFFFFFFFFF AND SWAP1 DUP1 PUSH1 0x2 ADD PUSH1 0x14 SWAP1 SLOAD SWAP1 PUSH2 0x100 EXP SWAP1 DIV PUSH1 0xFF AND SWAP1 DUP1 PUSH1 0x3 ADD SLOAD SWAP1 POP DUP6 JUMP JUMPDEST PUSH1 0x3 SLOAD DUP2 JUMP JUMPDEST PUSH1 0x0 DUP1 SLOAD SWAP1 PUSH2 0x100 EXP SWAP1 DIV PUSH20 0xFFFFFFFFFFFFFFFFFFFFFFFFFFFFFFFFFFFFFFFF AND PUSH20 0xFFFFFFFFFFFFFFFFFFFFFFFFFFFFFFFFFFFFFFFF AND CALLER PUSH20 0xFFFFFFFFFFFFFFFFFFFFFFFFFFFFFFFFFFFFFFFF AND EQ PUSH2 0x5ED JUMPI PUSH1 0x40 MLOAD PUSH32 0x8C379A000000000000000000000000000000000000000000000000000000000 DUP2 MSTORE PUSH1 0x4 ADD PUSH2 0x5E4 SWAP1 PUSH2 0xE98 JUMP JUMPDEST PUSH1 0x40 MLOAD DUP1 SWAP2 SUB SWAP1 REVERT JUMPDEST PUSH1 0x0 PUSH1 0x5 PUSH1 0x0 PUSH1 0x4 PUSH1 0x0 DUP2 SLOAD DUP1 SWAP3 SWAP2 SWAP1 PUSH2 0x606 SWAP1 PUSH2 0x10CB JUMP JUMPDEST SWAP2 SWAP1 POP SSTORE DUP2 MSTORE PUSH1 0x20 ADD SWAP1 DUP2 MSTORE PUSH1 0x20 ADD PUSH1 0x0 KECCAK256 SWAP1 POP DUP4 DUP2 PUSH1 0x0 ADD SWAP1 DUP1 MLOAD SWAP1 PUSH1 0x20 ADD SWAP1 PUSH2 0x632 SWAP3 SWAP2 SWAP1 PUSH2 0x913 JUMP JUMPDEST POP DUP3 DUP2 PUSH1 0x1 ADD DUP2 SWAP1 SSTORE POP DUP2 DUP2 PUSH1 0x2 ADD PUSH1 0x0 PUSH2 0x100 EXP DUP2 SLOAD DUP2 PUSH20 0xFFFFFFFFFFFFFFFFFFFFFFFFFFFFFFFFFFFFFFFF MUL NOT AND SWAP1 DUP4 PUSH20 0xFFFFFFFFFFFFFFFFFFFFFFFFFFFFFFFFFFFFFFFF AND MUL OR SWAP1 SSTORE POP PUSH1 0x0 DUP2 PUSH1 0x2 ADD PUSH1 0x14 PUSH2 0x100 EXP DUP2 SLOAD DUP2 PUSH1 0xFF MUL NOT AND SWAP1 DUP4 ISZERO ISZERO MUL OR SWAP1 SSTORE POP PUSH1 0x0 DUP2 PUSH1 0x3 ADD DUP2 SWAP1 SSTORE POP POP POP POP POP JUMP JUMPDEST PUSH1 0x1 SLOAD DUP2 JUMP JUMPDEST PUSH1 0x1 SLOAD CALLVALUE LT ISZERO PUSH2 0x6F7 JUMPI PUSH1 0x40 MLOAD PUSH32 0x8C379A000000000000000000000000000000000000000000000000000000000 DUP2 MSTORE PUSH1 0x4 ADD PUSH2 0x6EE SWAP1 PUSH2 0x1185 JUMP JUMPDEST PUSH1 0x40 MLOAD DUP1 SWAP2 SUB SWAP1 REVERT JUMPDEST PUSH1 0x1 PUSH1 0x2 PUSH1 0x0 CALLER PUSH20 0xFFFFFFFFFFFFFFFFFFFFFFFFFFFFFFFFFFFFFFFF AND PUSH20 0xFFFFFFFFFFFFFFFFFFFFFFFFFFFFFFFFFFFFFFFF AND DUP2 MSTORE PUSH1 0x20 ADD SWAP1 DUP2 MSTORE PUSH1 0x20 ADD PUSH1 0x0 KECCAK256 PUSH1 0x0 PUSH2 0x100 EXP DUP2 SLOAD DUP2 PUSH1 0xFF MUL NOT AND SWAP1 DUP4 ISZERO ISZERO MUL OR SWAP1 SSTORE POP PUSH1 0x3 PUSH1 0x0 DUP2 SLOAD DUP1 SWAP3 SWAP2 SWAP1 PUSH2 0x762 SWAP1 PUSH2 0x10CB JUMP JUMPDEST SWAP2 SWAP1 POP SSTORE POP JUMP JUMPDEST PUSH1 0x0 PUSH1 0x5 PUSH1 0x0 DUP4 DUP2 MSTORE PUSH1 0x20 ADD SWAP1 DUP2 MSTORE PUSH1 0x20 ADD PUSH1 0x0 KECCAK256 SWAP1 POP PUSH1 0x2 PUSH1 0x0 CALLER PUSH20 0xFFFFFFFFFFFFFFFFFFFFFFFFFFFFFFFFFFFFFFFF AND PUSH20 0xFFFFFFFFFFFFFFFFFFFFFFFFFFFFFFFFFFFFFFFF AND DUP2 MSTORE PUSH1 0x20 ADD SWAP1 DUP2 MSTORE PUSH1 0x20 ADD PUSH1 0x0 KECCAK256 PUSH1 0x0 SWAP1 SLOAD SWAP1 PUSH2 0x100 EXP SWAP1 DIV PUSH1 0xFF AND PUSH2 0x80C JUMPI PUSH1 0x40 MLOAD PUSH32 0x8C379A000000000000000000000000000000000000000000000000000000000 DUP2 MSTORE PUSH1 0x4 ADD PUSH2 0x803 SWAP1 PUSH2 0x1217 JUMP JUMPDEST PUSH1 0x40 MLOAD DUP1 SWAP2 SUB SWAP1 REVERT JUMPDEST DUP1 PUSH1 0x4 ADD PUSH1 0x0 CALLER PUSH20 0xFFFFFFFFFFFFFFFFFFFFFFFFFFFFFFFFFFFFFFFF AND PUSH20 0xFFFFFFFFFFFFFFFFFFFFFFFFFFFFFFFFFFFFFFFF AND DUP2 MSTORE PUSH1 0x20 ADD SWAP1 DUP2 MSTORE PUSH1 0x20 ADD PUSH1 0x0 KECCAK256 PUSH1 0x0 SWAP1 SLOAD SWAP1 PUSH2 0x100 EXP SWAP1 DIV PUSH1 0xFF AND ISZERO PUSH2 0x89B JUMPI PUSH1 0x40 MLOAD PUSH32 0x8C379A000000000000000000000000000000000000000000000000000000000 DUP2 MSTORE PUSH1 0x4 ADD PUSH2 0x892 SWAP1 PUSH2 0x12A9 JUMP JUMPDEST PUSH1 0x40 MLOAD DUP1 SWAP2 SUB SWAP1 REVERT JUMPDEST PUSH1 0x1 DUP2 PUSH1 0x4 ADD PUSH1 0x0 CALLER PUSH20 0xFFFFFFFFFFFFFFFFFFFFFFFFFFFFFFFFFFFFFFFF AND PUSH20 0xFFFFFFFFFFFFFFFFFFFFFFFFFFFFFFFFFFFFFFFF AND DUP2 MSTORE PUSH1 0x20 ADD SWAP1 DUP2 MSTORE PUSH1 0x20 ADD PUSH1 0x0 KECCAK256 PUSH1 0x0 PUSH2 0x100 EXP DUP2 SLOAD DUP2 PUSH1 0xFF MUL NOT AND SWAP1 DUP4 ISZERO ISZERO MUL OR SWAP1 SSTORE POP DUP1 PUSH1 0x3 ADD PUSH1 0x0 DUP2 SLOAD DUP1 SWAP3 SWAP2 SWAP1 PUSH2 0x90A SWAP1 PUSH2 0x10CB JUMP JUMPDEST SWAP2 SWAP1 POP SSTORE POP POP POP JUMP JUMPDEST DUP3 DUP1 SLOAD PUSH2 0x91F SWAP1 PUSH2 0x109A JUMP JUMPDEST SWAP1 PUSH1 0x0 MSTORE PUSH1 0x20 PUSH1 0x0 KECCAK256 SWAP1 PUSH1 0x1F ADD PUSH1 0x20 SWAP1 DIV DUP2 ADD SWAP3 DUP3 PUSH2 0x941 JUMPI PUSH1 0x0 DUP6 SSTORE PUSH2 0x988 JUMP JUMPDEST DUP3 PUSH1 0x1F LT PUSH2 0x95A JUMPI DUP1 MLOAD PUSH1 0xFF NOT AND DUP4 DUP1 ADD OR DUP6 SSTORE PUSH2 0x988 JUMP JUMPDEST DUP3 DUP1 ADD PUSH1 0x1 ADD DUP6 SSTORE DUP3 ISZERO PUSH2 0x988 JUMPI SWAP2 DUP3 ADD JUMPDEST DUP3 DUP2 GT ISZERO PUSH2 0x987 JUMPI DUP3 MLOAD DUP3 SSTORE SWAP2 PUSH1 0x20 ADD SWAP2 SWAP1 PUSH1 0x1 ADD SWAP1 PUSH2 0x96C JUMP JUMPDEST JUMPDEST POP SWAP1 POP PUSH2 0x995 SWAP2 SWAP1 PUSH2 0x999 JUMP JUMPDEST POP SWAP1 JUMP JUMPDEST JUMPDEST DUP1 DUP3 GT ISZERO PUSH2 0x9B2 JUMPI PUSH1 0x0 DUP2 PUSH1 0x0 SWAP1 SSTORE POP PUSH1 0x1 ADD PUSH2 0x99A JUMP JUMPDEST POP SWAP1 JUMP JUMPDEST PUSH1 0x0 PUSH1 0x40 MLOAD SWAP1 POP SWAP1 JUMP JUMPDEST PUSH1 0x0 DUP1 REVERT JUMPDEST PUSH1 0x0 DUP1 REVERT JUMPDEST PUSH1 0x0 DUP2 SWAP1 POP SWAP2 SWAP1 POP JUMP JUMPDEST PUSH2 0x9DD DUP2 PUSH2 0x9CA JUMP JUMPDEST DUP2 EQ PUSH2 0x9E8 JUMPI PUSH1 0x0 DUP1 REVERT JUMPDEST POP JUMP JUMPDEST PUSH1 0x0 DUP2 CALLDATALOAD SWAP1 POP PUSH2 0x9FA DUP2 PUSH2 0x9D4 JUMP JUMPDEST SWAP3 SWAP2 POP POP JUMP JUMPDEST PUSH1 0x0 PUSH1 0x20 DUP3 DUP5 SUB SLT ISZERO PUSH2 0xA16 JUMPI PUSH2 0xA15 PUSH2 0x9C0 JUMP JUMPDEST JUMPDEST PUSH1 0x0 PUSH2 0xA24 DUP5 DUP3 DUP6 ADD PUSH2 0x9EB JUMP JUMPDEST SWAP2 POP POP SWAP3 SWAP2 POP POP JUMP JUMPDEST PUSH1 0x0 PUSH20 0xFFFFFFFFFFFFFFFFFFFFFFFFFFFFFFFFFFFFFFFF DUP3 AND SWAP1 POP SWAP2 SWAP1 POP JUMP JUMPDEST PUSH1 0x0 PUSH2 0xA58 DUP3 PUSH2 0xA2D JUMP JUMPDEST SWAP1 POP SWAP2 SWAP1 POP JUMP JUMPDEST PUSH2 0xA68 DUP2 PUSH2 0xA4D JUMP JUMPDEST DUP2 EQ PUSH2 0xA73 JUMPI PUSH1 0x0 DUP1 REVERT JUMPDEST POP JUMP JUMPDEST PUSH1 0x0 DUP2 CALLDATALOAD SWAP1 POP PUSH2 0xA85 DUP2 PUSH2 0xA5F JUMP JUMPDEST SWAP3 SWAP2 POP POP JUMP JUMPDEST PUSH1 0x0 PUSH1 0x20 DUP3 DUP5 SUB SLT ISZERO PUSH2 0xAA1 JUMPI PUSH2 0xAA0 PUSH2 0x9C0 JUMP JUMPDEST JUMPDEST PUSH1 0x0 PUSH2 0xAAF DUP5 DUP3 DUP6 ADD PUSH2 0xA76 JUMP JUMPDEST SWAP2 POP POP SWAP3 SWAP2 POP POP JUMP JUMPDEST PUSH1 0x0 DUP2 ISZERO ISZERO SWAP1 POP SWAP2 SWAP1 POP JUMP JUMPDEST PUSH2 0xACD DUP2 PUSH2 0xAB8 JUMP JUMPDEST DUP3 MSTORE POP POP JUMP JUMPDEST PUSH1 0x0 PUSH1 0x20 DUP3 ADD SWAP1 POP PUSH2 0xAE8 PUSH1 0x0 DUP4 ADD DUP5 PUSH2 0xAC4 JUMP JUMPDEST SWAP3 SWAP2 POP POP JUMP JUMPDEST PUSH2 0xAF7 DUP2 PUSH2 0x9CA JUMP JUMPDEST DUP3 MSTORE POP POP JUMP JUMPDEST PUSH1 0x0 PUSH1 0x20 DUP3 ADD SWAP1 POP PUSH2 0xB12 PUSH1 0x0 DUP4 ADD DUP5 PUSH2 0xAEE JUMP JUMPDEST SWAP3 SWAP2 POP POP JUMP JUMPDEST PUSH2 0xB21 DUP2 PUSH2 0xA4D JUMP JUMPDEST DUP3 MSTORE POP POP JUMP JUMPDEST PUSH1 0x0 PUSH1 0x20 DUP3 ADD SWAP1 POP PUSH2 0xB3C PUSH1 0x0 DUP4 ADD DUP5 PUSH2 0xB18 JUMP JUMPDEST SWAP3 SWAP2 POP POP JUMP JUMPDEST PUSH1 0x0 DUP2 MLOAD SWAP1 POP SWAP2 SWAP1 POP JUMP JUMPDEST PUSH1 0x0 DUP3 DUP3 MSTORE PUSH1 0x20 DUP3 ADD SWAP1 POP SWAP3 SWAP2 POP POP JUMP JUMPDEST PUSH1 0x0 JUMPDEST DUP4 DUP2 LT ISZERO PUSH2 0xB7C JUMPI DUP1 DUP3 ADD MLOAD DUP2 DUP5 ADD MSTORE PUSH1 0x20 DUP2 ADD SWAP1 POP PUSH2 0xB61 JUMP JUMPDEST DUP4 DUP2 GT ISZERO PUSH2 0xB8B JUMPI PUSH1 0x0 DUP5 DUP5 ADD MSTORE JUMPDEST POP POP POP POP JUMP JUMPDEST PUSH1 0x0 PUSH1 0x1F NOT PUSH1 0x1F DUP4 ADD AND SWAP1 POP SWAP2 SWAP1 POP JUMP JUMPDEST PUSH1 0x0 PUSH2 0xBAD DUP3 PUSH2 0xB42 JUMP JUMPDEST PUSH2 0xBB7 DUP2 DUP6 PUSH2 0xB4D JUMP JUMPDEST SWAP4 POP PUSH2 0xBC7 DUP2 DUP6 PUSH1 0x20 DUP7 ADD PUSH2 0xB5E JUMP JUMPDEST PUSH2 0xBD0 DUP2 PUSH2 0xB91 JUMP JUMPDEST DUP5 ADD SWAP2 POP POP SWAP3 SWAP2 POP POP JUMP JUMPDEST PUSH1 0x0 PUSH2 0xBE6 DUP3 PUSH2 0xA2D JUMP JUMPDEST SWAP1 POP SWAP2 SWAP1 POP JUMP JUMPDEST PUSH2 0xBF6 DUP2 PUSH2 0xBDB JUMP JUMPDEST DUP3 MSTORE POP POP JUMP JUMPDEST PUSH1 0x0 PUSH1 0xA0 DUP3 ADD SWAP1 POP DUP2 DUP2 SUB PUSH1 0x0 DUP4 ADD MSTORE PUSH2 0xC16 DUP2 DUP9 PUSH2 0xBA2 JUMP JUMPDEST SWAP1 POP PUSH2 0xC25 PUSH1 0x20 DUP4 ADD DUP8 PUSH2 0xAEE JUMP JUMPDEST PUSH2 0xC32 PUSH1 0x40 DUP4 ADD DUP7 PUSH2 0xBED JUMP JUMPDEST PUSH2 0xC3F PUSH1 0x60 DUP4 ADD DUP6 PUSH2 0xAC4 JUMP JUMPDEST PUSH2 0xC4C PUSH1 0x80 DUP4 ADD DUP5 PUSH2 0xAEE JUMP JUMPDEST SWAP7 SWAP6 POP POP POP POP POP POP JUMP JUMPDEST PUSH1 0x0 DUP1 REVERT JUMPDEST PUSH1 0x0 DUP1 REVERT JUMPDEST PUSH32 0x4E487B7100000000000000000000000000000000000000000000000000000000 PUSH1 0x0 MSTORE PUSH1 0x41 PUSH1 0x4 MSTORE PUSH1 0x24 PUSH1 0x0 REVERT JUMPDEST PUSH2 0xC98 DUP3 PUSH2 0xB91 JUMP JUMPDEST DUP2 ADD DUP2 DUP2 LT PUSH8 0xFFFFFFFFFFFFFFFF DUP3 GT OR ISZERO PUSH2 0xCB7 JUMPI PUSH2 0xCB6 PUSH2 0xC60 JUMP JUMPDEST JUMPDEST DUP1 PUSH1 0x40 MSTORE POP POP POP JUMP JUMPDEST PUSH1 0x0 PUSH2 0xCCA PUSH2 0x9B6 JUMP JUMPDEST SWAP1 POP PUSH2 0xCD6 DUP3 DUP3 PUSH2 0xC8F JUMP JUMPDEST SWAP2 SWAP1 POP JUMP JUMPDEST PUSH1 0x0 PUSH8 0xFFFFFFFFFFFFFFFF DUP3 GT ISZERO PUSH2 0xCF6 JUMPI PUSH2 0xCF5 PUSH2 0xC60 JUMP JUMPDEST JUMPDEST PUSH2 0xCFF DUP3 PUSH2 0xB91 JUMP JUMPDEST SWAP1 POP PUSH1 0x20 DUP2 ADD SWAP1 POP SWAP2 SWAP1 POP JUMP JUMPDEST DUP3 DUP2 DUP4 CALLDATACOPY PUSH1 0x0 DUP4 DUP4 ADD MSTORE POP POP POP JUMP JUMPDEST PUSH1 0x0 PUSH2 0xD2E PUSH2 0xD29 DUP5 PUSH2 0xCDB JUMP JUMPDEST PUSH2 0xCC0 JUMP JUMPDEST SWAP1 POP DUP3 DUP2 MSTORE PUSH1 0x20 DUP2 ADD DUP5 DUP5 DUP5 ADD GT ISZERO PUSH2 0xD4A JUMPI PUSH2 0xD49 PUSH2 0xC5B JUMP JUMPDEST JUMPDEST PUSH2 0xD55 DUP5 DUP3 DUP6 PUSH2 0xD0C JUMP JUMPDEST POP SWAP4 SWAP3 POP POP POP JUMP JUMPDEST PUSH1 0x0 DUP3 PUSH1 0x1F DUP4 ADD SLT PUSH2 0xD72 JUMPI PUSH2 0xD71 PUSH2 0xC56 JUMP JUMPDEST JUMPDEST DUP2 CALLDATALOAD PUSH2 0xD82 DUP5 DUP3 PUSH1 0x20 DUP7 ADD PUSH2 0xD1B JUMP JUMPDEST SWAP2 POP POP SWAP3 SWAP2 POP POP JUMP JUMPDEST PUSH2 0xD94 DUP2 PUSH2 0xBDB JUMP JUMPDEST DUP2 EQ PUSH2 0xD9F JUMPI PUSH1 0x0 DUP1 REVERT JUMPDEST POP JUMP JUMPDEST PUSH1 0x0 DUP2 CALLDATALOAD SWAP1 POP PUSH2 0xDB1 DUP2 PUSH2 0xD8B JUMP JUMPDEST SWAP3 SWAP2 POP POP JUMP JUMPDEST PUSH1 0x0 DUP1 PUSH1 0x0 PUSH1 0x60 DUP5 DUP7 SUB SLT ISZERO PUSH2 0xDD0 JUMPI PUSH2 0xDCF PUSH2 0x9C0 JUMP JUMPDEST JUMPDEST PUSH1 0x0 DUP5 ADD CALLDATALOAD PUSH8 0xFFFFFFFFFFFFFFFF DUP2 GT ISZERO PUSH2 0xDEE JUMPI PUSH2 0xDED PUSH2 0x9C5 JUMP JUMPDEST JUMPDEST PUSH2 0xDFA DUP7 DUP3 DUP8 ADD PUSH2 0xD5D JUMP JUMPDEST SWAP4 POP POP PUSH1 0x20 PUSH2 0xE0B DUP7 DUP3 DUP8 ADD PUSH2 0x9EB JUMP JUMPDEST SWAP3 POP POP PUSH1 0x40 PUSH2 0xE1C DUP7 DUP3 DUP8 ADD PUSH2 0xDA2 JUMP JUMPDEST SWAP2 POP POP SWAP3 POP SWAP3 POP SWAP3 JUMP JUMPDEST PUSH32 0x4F6E6C79207468652063616D706169676E206D616E616765722063616E206361 PUSH1 0x0 DUP3 ADD MSTORE PUSH32 0x6C6C20746869732066756E6374696F6E2E000000000000000000000000000000 PUSH1 0x20 DUP3 ADD MSTORE POP JUMP JUMPDEST PUSH1 0x0 PUSH2 0xE82 PUSH1 0x31 DUP4 PUSH2 0xB4D JUMP JUMPDEST SWAP2 POP PUSH2 0xE8D DUP3 PUSH2 0xE26 JUMP JUMPDEST PUSH1 0x40 DUP3 ADD SWAP1 POP SWAP2 SWAP1 POP JUMP JUMPDEST PUSH1 0x0 PUSH1 0x20 DUP3 ADD SWAP1 POP DUP2 DUP2 SUB PUSH1 0x0 DUP4 ADD MSTORE PUSH2 0xEB1 DUP2 PUSH2 0xE75 JUMP JUMPDEST SWAP1 POP SWAP2 SWAP1 POP JUMP JUMPDEST PUSH32 0x4E487B7100000000000000000000000000000000000000000000000000000000 PUSH1 0x0 MSTORE PUSH1 0x12 PUSH1 0x4 MSTORE PUSH1 0x24 PUSH1 0x0 REVERT JUMPDEST PUSH32 0x4E487B7100000000000000000000000000000000000000000000000000000000 PUSH1 0x0 MSTORE PUSH1 0x11 PUSH1 0x4 MSTORE PUSH1 0x24 PUSH1 0x0 REVERT JUMPDEST PUSH1 0x0 PUSH2 0xF21 DUP3 PUSH2 0x9CA JUMP JUMPDEST SWAP2 POP PUSH2 0xF2C DUP4 PUSH2 0x9CA JUMP JUMPDEST SWAP3 POP DUP3 PUSH2 0xF3C JUMPI PUSH2 0xF3B PUSH2 0xEB8 JUMP JUMPDEST JUMPDEST DUP3 DUP3 DIV SWAP1 POP SWAP3 SWAP2 POP POP JUMP JUMPDEST PUSH32 0x546869732072657175657374206E65656473206D6F726520617070726F76616C PUSH1 0x0 DUP3 ADD MSTORE PUSH32 0x73206265666F72652069742063616E2062652066696E616C697A656400000000 PUSH1 0x20 DUP3 ADD MSTORE POP JUMP JUMPDEST PUSH1 0x0 PUSH2 0xFA3 PUSH1 0x3C DUP4 PUSH2 0xB4D JUMP JUMPDEST SWAP2 POP PUSH2 0xFAE DUP3 PUSH2 0xF47 JUMP JUMPDEST PUSH1 0x40 DUP3 ADD SWAP1 POP SWAP2 SWAP1 POP JUMP JUMPDEST PUSH1 0x0 PUSH1 0x20 DUP3 ADD SWAP1 POP DUP2 DUP2 SUB PUSH1 0x0 DUP4 ADD MSTORE PUSH2 0xFD2 DUP2 PUSH2 0xF96 JUMP JUMPDEST SWAP1 POP SWAP2 SWAP1 POP JUMP JUMPDEST PUSH32 0x5468697320726571756573742068617320616C7265616479206265656E206669 PUSH1 0x0 DUP3 ADD MSTORE PUSH32 0x6E616C697A656400000000000000000000000000000000000000000000000000 PUSH1 0x20 DUP3 ADD MSTORE POP JUMP JUMPDEST PUSH1 0x0 PUSH2 0x1035 PUSH1 0x27 DUP4 PUSH2 0xB4D JUMP JUMPDEST SWAP2 POP PUSH2 0x1040 DUP3 PUSH2 0xFD9 JUMP JUMPDEST PUSH1 0x40 DUP3 ADD SWAP1 POP SWAP2 SWAP1 POP JUMP JUMPDEST PUSH1 0x0 PUSH1 0x20 DUP3 ADD SWAP1 POP DUP2 DUP2 SUB PUSH1 0x0 DUP4 ADD MSTORE PUSH2 0x1064 DUP2 PUSH2 0x1028 JUMP JUMPDEST SWAP1 POP SWAP2 SWAP1 POP JUMP JUMPDEST PUSH32 0x4E487B7100000000000000000000000000000000000000000000000000000000 PUSH1 0x0 MSTORE PUSH1 0x22 PUSH1 0x4 MSTORE PUSH1 0x24 PUSH1 0x0 REVERT JUMPDEST PUSH1 0x0 PUSH1 0x2 DUP3 DIV SWAP1 POP PUSH1 0x1 DUP3 AND DUP1 PUSH2 0x10B2 JUMPI PUSH1 0x7F DUP3 AND SWAP2 POP JUMPDEST PUSH1 0x20 DUP3 LT DUP2 SUB PUSH2 0x10C5 JUMPI PUSH2 0x10C4 PUSH2 0x106B JUMP JUMPDEST JUMPDEST POP SWAP2 SWAP1 POP JUMP JUMPDEST PUSH1 0x0 PUSH2 0x10D6 DUP3 PUSH2 0x9CA JUMP JUMPDEST SWAP2 POP PUSH32 0xFFFFFFFFFFFFFFFFFFFFFFFFFFFFFFFFFFFFFFFFFFFFFFFFFFFFFFFFFFFFFFFF DUP3 SUB PUSH2 0x1108 JUMPI PUSH2 0x1107 PUSH2 0xEE7 JUMP JUMPDEST JUMPDEST PUSH1 0x1 DUP3 ADD SWAP1 POP SWAP2 SWAP1 POP JUMP JUMPDEST PUSH32 0x41206D696E756D756D20636F6E747269627574696F6E20697320726571756972 PUSH1 0x0 DUP3 ADD MSTORE PUSH32 0x65642E0000000000000000000000000000000000000000000000000000000000 PUSH1 0x20 DUP3 ADD MSTORE POP JUMP JUMPDEST PUSH1 0x0 PUSH2 0x116F PUSH1 0x23 DUP4 PUSH2 0xB4D JUMP JUMPDEST SWAP2 POP PUSH2 0x117A DUP3 PUSH2 0x1113 JUMP JUMPDEST PUSH1 0x40 DUP3 ADD SWAP1 POP SWAP2 SWAP1 POP JUMP JUMPDEST PUSH1 0x0 PUSH1 0x20 DUP3 ADD SWAP1 POP DUP2 DUP2 SUB PUSH1 0x0 DUP4 ADD MSTORE PUSH2 0x119E DUP2 PUSH2 0x1162 JUMP JUMPDEST SWAP1 POP SWAP2 SWAP1 POP JUMP JUMPDEST PUSH32 0x4F6E6C7920636F6E7472696275746F72732063616E20617070726F7665206120 PUSH1 0x0 DUP3 ADD MSTORE PUSH32 0x7370656369666963207061796D656E7420726571756573740000000000000000 PUSH1 0x20 DUP3 ADD MSTORE POP JUMP JUMPDEST PUSH1 0x0 PUSH2 0x1201 PUSH1 0x38 DUP4 PUSH2 0xB4D JUMP JUMPDEST SWAP2 POP PUSH2 0x120C DUP3 PUSH2 0x11A5 JUMP JUMPDEST PUSH1 0x40 DUP3 ADD SWAP1 POP SWAP2 SWAP1 POP JUMP JUMPDEST PUSH1 0x0 PUSH1 0x20 DUP3 ADD SWAP1 POP DUP2 DUP2 SUB PUSH1 0x0 DUP4 ADD MSTORE PUSH2 0x1230 DUP2 PUSH2 0x11F4 JUMP JUMPDEST SWAP1 POP SWAP2 SWAP1 POP JUMP JUMPDEST PUSH32 0x596F75206861766520616C726561647920766F74656420746F20617070726F76 PUSH1 0x0 DUP3 ADD MSTORE PUSH32 0x6520746869732072657175657374000000000000000000000000000000000000 PUSH1 0x20 DUP3 ADD MSTORE POP JUMP JUMPDEST PUSH1 0x0 PUSH2 0x1293 PUSH1 0x2E DUP4 PUSH2 0xB4D JUMP JUMPDEST SWAP2 POP PUSH2 0x129E DUP3 PUSH2 0x1237 JUMP JUMPDEST PUSH1 0x40 DUP3 ADD SWAP1 POP SWAP2 SWAP1 POP JUMP JUMPDEST PUSH1 0x0 PUSH1 0x20 DUP3 ADD SWAP1 POP DUP2 DUP2 SUB PUSH1 0x0 DUP4 ADD MSTORE PUSH2 0x12C2 DUP2 PUSH2 0x1286 JUMP JUMPDEST SWAP1 POP SWAP2 SWAP1 POP JUMP INVALID LOG2 PUSH5 0x6970667358 0x22 SLT KECCAK256 0xDF BLOCKHASH DUP6 JUMP DUP10 CALLVALUE DUP6 DUP15 PUSH15 0x14B87A1A04C3D7B8738483EA62D7DE EXTCODECOPY DUP3 0xD8 0x26 DIV 0xEA RETURNDATASIZE 0xD1 PUSH5 0x736F6C6343 STOP ADDMOD 0xD STOP CALLER "},"gasEstimates":{"creation":{"codeDepositCost":"972600","executionCost":"infinite","totalCost":"infinite"},"external":{"approveRequest(uint256)":"infinite","approvers(address)":"2868","approversCount()":"2429","contribute()":"51024","createRequest(string,uint256,address)":"infinite","finalizeRequest(uint256)":"infinite","getRequestsCount()":"2482","manager()":"2578","minimumContribution()":"2473","requests(uint256)":"infinite"}},"methodIdentifiers":{"approveRequest(uint256)":"d7d1bbdb","approvers(address)":"0a144391","approversCount()":"82fde093","contribute()":"d7bb99ba","createRequest(string,uint256,address)":"8a9cfd55","finalizeRequest(uint256)":"03441006","getRequestsCount()":"3410452a","manager()":"481c6a75","minimumContribution()":"937e09b1","requests(uint256)":"81d12c58"}},"storageLayout":{"storage":[{"astId":56,"contract":"Campaign.sol:Campaign","label":"manager","offset":0,"slot":"0","type":"t_address"},{"astId":58,"contract":"Campaign.sol:Campaign","label":"minimumContribution","offset":0,"slot":"1","type":"t_uint256"},{"astId":62,"contract":"Campaign.sol:Campaign","label":"approvers","offset":0,"slot":"2","type":"t_mapping(t_address,t_bool)"},{"astId":64,"contract":"Campaign.sol:Campaign","label":"approversCount","offset":0,"slot":"3","type":"t_uint256"},{"astId":66,"contract":"Campaign.sol:Campaign","label":"numRequests","offset":0,"slot":"4","type":"t_uint256"},{"astId":71,"contract":"Campaign.sol:Campaign","label":"requests","offset":0,"slot":"5","type":"t_mapping(t_uint256,t_struct(Request)54_storage)"}],"types":{"t_address":{"encoding":"inplace","label":"address","numberOfBytes":"20"},"t_address_payable":{"encoding":"inplace","label":"address payable","numberOfBytes":"20"},"t_bool":{"encoding":"inplace","label":"bool","numberOfBytes":"1"},"t_mapping(t_address,t_bool)":{"encoding":"mapping","key":"t_address","label":"mapping(address => bool)","numberOfBytes":"32","value":"t_bool"},"t_mapping(t_uint256,t_struct(Request)54_storage)":{"encoding":"mapping","key":"t_uint256","label":"mapping(uint256 => struct Campaign.Request)","numberOfBytes":"32","value":"t_struct(Request)54_storage"},"t_string_storage":{"encoding":"bytes","label":"string","numberOfBytes":"32"},"t_struct(Request)54_storage":{"encoding":"inplace","label":"struct Campaign.Request","members":[{"astId":41,"contract":"Campaign.sol:Campaign","label":"description","offset":0,"slot":"0","type":"t_string_storage"},{"astId":43,"contract":"Campaign.sol:Campaign","label":"value","offset":0,"slot":"1","type":"t_uint256"},{"astId":45,"contract":"Campaign.sol:Campaign","label":"recipient","offset":0,"slot":"2","type":"t_address_payable"},{"astId":47,"contract":"Campaign.sol:Campaign","label":"complete","offset":20,"slot":"2","type":"t_bool"},{"astId":49,"contract":"Campaign.sol:Campaign","label":"approvalCount","offset":0,"slot":"3","type":"t_uint256"},{"astId":53,"contract":"Campaign.sol:Campaign","label":"approvals","offset":0,"slot":"4","type":"t_mapping(t_address,t_bool)"}],"numberOfBytes":"160"},"t_uint256":{"encoding":"inplace","label":"uint256","numberOfBytes":"32"}}},"userdoc":{"kind":"user","methods":{},"version":1}}